:100000000C9434000C9451000C9451000C94510049
:100010000C9451000C9451000C9451000C9451001C
:100020000C9451000C9451000C9451000C9451000C
:100030000C9451000C9451000C9451000C945100FC
:100040000C9451000C9451000C9451000C945100EC
:100050000C9451000C9451000C9451000C945100DC
:100060000C9451000C94510011241FBECFEFD8E026
:10007000DEBFCDBF12E0A0E0B1E0E8E4F6E202C0EE
:1000800005900D92AE38B107D9F723E0AEE8B2E0A3
:1000900001C01D92AC32B207E1F70E94D80F0C9458
:1000A00022130C940000CF93DF93CAEBD2E08AEACC
:1000B00090E09BA38AA38BEB90E09DA38CA38CEC98
:1000C00090E09FA38EA381E890E09B8F8A8F89E9BF
:1000D00090E0998F888F65EA71E086EC92E00E944B
:1000E000431060EB71E0CE010E9443100E94420F6A
:1000F0001E8E1F8E18A219A21BA21AA21DA21CA23C
:100100001FA21EA21B8E1A8E198E188E8CE0E6EC92
:10011000F2E0DF01982F1D929A95E9F7DE011D921A
:100120008A95E9F70E940A0F0E94940F8BEB91E0E9
:100130000E941701EFE1F3E03197F1F700C00000F2
:1001400086EC92E00E9417018FE193E00197F1F7AE
:1001500000C0000087EC91E00E941701AFE1B3E01E
:100160001197F1F700C00000CE010E9417018DE544
:1001700092E0DF91CF910C941701EF92FF921F93C1
:10018000CF93DF93CDB7DEB76E970FB6F894DEBF8F
:100190000FBECDBFCE0101967C018EE1F701119219
:1001A0008A95E9F70E947601182F811118C00E94E4
:1001B000F203182F882301F11F928F9388E092E0B9
:1001C0009F938F93FF92EF920E944A10C7010E9463
:1001D00017010F900F900F900F900F900F90812F9D
:1001E0006E960FB6F894DEBF0FBECDBFDF91CF91F4
:1001F0001F91FF90EF9008950E941002182F8823FE
:1002000071F31F928F938CE192E0DACF680F791F20
:100210008617970711F4089500002091C00025FF6C
:10022000FBCFFC012191CF012093C600F1CFDC016F
:10023000FC0101900020E9F73197E81BF90B9D01C3
:10024000281B390B2E173F0710F00895000020914E
:10025000C00025FFFBCF2D912093C600E9CFCF92A0
:10026000DF92EF92FF920F931F93009185011091FF
:10027000860130E020E0C901B80143E0660F771F36
:10028000881F991F4A95D1F7C0908F01D090900197
:10029000E0909101F09092016C0D7D1D8E1D9F1DCF
:1002A000A9019801E4E0220F331F441F551FEA956E
:1002B000D1F70E94FE0F21503109C901B0E0A0E042
:1002C00080938B0190938C01A0938D01B0938E014C
:1002D0001F910F91FF90EF90DF90CF900895519A6A
:1002E0008AB11AB88BB183608BB908950E946F01EF
:1002F0000E942F0180918B0190918C01A0918D0122
:10030000B0918E01492F5A2F6B2F77274093C5004C
:100310008093C400E2ECF0E080818F708083808164
:1003200088608083A0ECB0E08C918D7F8C93A1ECF1
:10033000B0E088E18C938C918B7F8C938081866078
:10034000808380E00895CF93C0910801C43009F400
:100350004AC020F4C13059F08AE043C0C03109F4EA
:100360004BC0C034C9F78091B90082603FC0809112
:10037000B9008C7F8093B90060918F0170919001DA
:100380008091910190919201209104013091050199
:1003900040910601509107010E94FE0FCA01B90168
:1003A00060517109810991092C2F30E0220F331F10
:1003B000032E000C440B550B0E94FE0F223008F454
:1003C00022E02093B8008091B80090E0B0E0A0E077
:1003D0008093000190930101A0930201B093030167
:1003E00080E0CF9108958091B9008D7F8093B9000E
:1003F0008091B9008160BECF8091B9008260809306
:10040000B9008091B9008E7FB5CF8091090182300B
:1004100018F08051823010F480E008958AE0089549
:10042000CF9387B18F7C87B988B1806388B985E025
:100430008A95F1F70000359B12C0349B10C085E30C
:100440008A95F1F700000E94A301C82F80E392E093
:100450000E941701C11104C0CF910C940502CDE098
:100460008C2FCF910895880F682B8091BC00846AEF
:100470008093BC008091BC0087FFFCCF6093BB00E1
:100480008091BC008F7D8093BC008091BC0084680B
:100490008093BC008091BC0087FFFCCF8091B900A5
:1004A000887F0895ECEBF0E08081846980838091FF
:1004B000B900887F08951F93CF93DF93D82F162F0D
:1004C000CAE061E0113009F060E08D2F0E94330234
:1004D000883159F09091BC0094699093BC0095E0EC
:1004E0009A95F1F70000C15061F7DF91CF911F910C
:1004F00008958091B90008950F931F93CF93DF93D0
:10050000EC01892B21F1842F8B0160E00E945B02BA
:100510000C0F1D1F94E88831B1F08091B900DF9174
:10052000CF911F910F910C9452028091BC0087FFD4
:10053000FCCF89918093BB009093BC008091B9005F
:10054000887F8832D9F7C017D10779F7E8CF81E0E3
:10055000DF91CF911F910F910895009739F0FC0121
:10056000680F791F94E8E617F70711F481E0089502
:100570008091BC0087FFFCCF81918093BB0090935A
:10058000BC008091B900887F8832D9F7ECCF0F93F7
:100590001F93CF93DF93EC0181E02097A1F0842F8C
:1005A0008B0161E00E945B020C0F1D1F94E88831F3
:1005B000E9F08091B9008091BC0084698093BC000F
:1005C0008091B900887FDF91CF911F910F9108959D
:1005D0008091BC0087FFFCCF89918093BB009093F2
:1005E000BC008091B900887F8832D9F7C017D10745
:1005F00079F7E1CF0097F1F0FC01680F791F94E8DB
:10060000E617F70741F49091B900987F81E098329E
:1006100091F480E008958091BC0087FFFCCF819128
:100620008093BB009093BC008091B900887F883292
:10063000D9F7E6CF81E00895809118018330E9F081
:10064000843079F18230D9F584B18C6284B92498F0
:1006500085B18C6385B985E08A95F1F700001D9915
:1006600002C082E008951B9BFCCF1A9BFACF85E362
:100670008A95F1F7000080E0089584B1886284B91A
:1006800084B18B7E84B985B18C6385B985E08A9508
:10069000F1F700001D9BE5CF1B9BE3CF1A99EBCF31
:1006A000E0CF249A84B1837D84B985B18C6385B908
:1006B00085E08A95F1F700001C99DDCFD2CF81E06B
:1006C000089580911301813009F457C040F08230C1
:1006D00009F458C0833009F459C081E0089510929C
:1006E0000A0110920B0180911501803109F46CC050
:1006F00008F050C0843009F45AC0883009F45EC054
:10070000823059F710920D0110920E0181E0809312
:100710000C0180910F01909110019093B902809388
:10072000B80280911101909112019093B3028093CD
:10073000B20281E291E09093AF028093AE02809189
:100740001A0190911B019093B1028093B0028091A5
:100750001C0190911D019093B5028093B402809189
:100760001E0190911F019093B7028093B602809171
:1007700020018093AD0280E0089510920A018093D9
:100780000B01B1CF81E080930A01ABCF81E0809370
:100790000A01F5CF8034F1F0803801F1803209F0A0
:1007A0009CCF81E080930D0110920E01B0CF10928A
:1007B0000D0110920E0110920C01ABCF10920D01A1
:1007C00081E080930E01A3CF10920D0181E0809310
:1007D0000E01F1CF81E080930D01EBCF81E080939A
:1007E0000D01F5CF0E941C03811141C00E946103DD
:1007F00081113DC090911801925021E0923008F093
:1008000020E09CB53091160130FB97F99CBD9CB55A
:100810003091140130FB95F99CBD9CB59F7E2295CB
:10082000207F922B9CBD9CB520910A0120FB93F95F
:100830009CBD9CB520910B0120FB92F99CBD9CB501
:1008400020910D0120FB91F99CBD9CB520910E01DA
:1008500020FB90F99CBD9DB520910C0120FB90F9E7
:100860009DBD9CB52091170120FB96F99CBD089574
:100870000F931F93FC018F01081B190B30E020E040
:10088000041715072607370718F01F910F910895D1
:1008900021912EBD0DB407FEFDCFEDCF680F791F5E
:1008A0008617970709F408951EBC0DB407FEFDCF07
:1008B0002EB5FC012193CF01F3CFE091B402F0916A
:1008C000B50220813091AD0281E090E001C0880F37
:1008D0003A95EAF7809582238083E091B602F09101
:1008E000B702808190E02091AD0202C09595879576
:1008F0002A95E2F780FF02C083E0089580E0089522
:10090000E091B402F091B50280819091AD0221E0B6
:1009100030E001C0220F9A95EAF7822B8083E091A4
:10092000B602F091B702808190E02091AD0202C042
:10093000959587952A95E2F780FF02C080E008959B
:1009400083E008950F931F93CF93DF93182F092F00
:10095000EB010CB404FC10C0E12FF02FCE0FDF1F11
:10096000EC17FD0791F40CB404FE2CC0DF91CF917D
:100970001F910F910C9480040E945D04882361F301
:10098000DF91CF911F910F91089581918EBD90E0DD
:1009900080E00DB407FE03C08EB58DB5E1CF000039
:1009A0009C012F5F3F4F4091B8025091B902481708
:1009B000590730F40CB404FC0E94800482E0E0CFBC
:1009C000C901E7CF80E0DCCFCF93DF93EC018091CA
:1009D0009D01853021F50CB404FE04C00E945D0425
:1009E0008093970280919702811151C0D093960213
:1009F000C09395028091AE029091AF02892B09F4C9
:100A000049C086E0CD2B09F442C0109294021092A6
:100A1000930286E080939D018CB580688CBD8091A7
:100A20009D018630E9F48091930290919402209187
:100A300095023091960282179307A0F427E0209345
:100A40001901E091AE02F091AF029C012F5F3F4F80
:100A50003093940220939302E80FF91F80818EBD9A
:100A600087E015C08CB58F778CBD0CB404FE04C034
:100A70000E9480048093970288E08093190110926D
:100A800094021092930285E080939D0188E0DF91AB
:100A9000CF91089585E0FBCF0097E1F0FC01019034
:100AA0000020E9F73197E81BF90B60911101709173
:100AB0001201E617F70708F4BF012091160122235F
:100AC00039F09093AF028093AE02CB010C94E40412
:100AD0000C94A20485E008950F931F93CF93DF93A6
:100AE000182F092FEB010CB404FC11C0E12FF02FDB
:100AF000CE0FDF1F2FEFEC17FD0791F40CB404FEAF
:100B00002DC0DF91CF911F910F910C9480040E9412
:100B10005D04882359F3DF91CF911F910F910895C0
:100B20000CB404FC2EBD90E080E00DB407FE03C0C1
:100B30008EB58193E0CF0000AC014F5F5F4F6091B5
:100B4000B8027091B9026817790730F40CB404FC4C
:100B50000E94800482E0DFCFCA01E7CF80E0DBCFD4
:100B60009C0180919C01853019F53093920220936D
:100B700091024091AE025091AF02452B09F450C052
:100B8000232B11F486E008951092900210928F02A8
:100B900086E080939C018CB580688CBD0CB404FE0B
:100BA000F1CF0E945D0481113BC08FEF8EBDEACF73
:100BB000863011F087E008954EB5E091AE02F091D5
:100BC000AF0220918F0230919002C901019690935B
:100BD000900280938F02E20FF31F408320919102D5
:100BE000309192028217930748F487E080931901AD
:100BF0000CB404FEDFCF8FEF8EBDDCCF8CB58F77CA
:100C00008CBD0CB404FC0E94800488E08093190120
:100C10001092900210928F0285E080939C0188E0F0
:100C200008950097E1F0FC0101900020E9F7319769
:100C3000E81BF90B6091110170911201E617F7079B
:100C400008F4BF0120911601222339F09093AF02DE
:100C50008093AE02CB010C94B0050C946C0585E03A
:100C60000895FC0181E083831482858316821782B4
:100C7000108681871286838714861282118287E20A
:100C80008083089510929D029C01215031092330E8
:100C90003105C0F42E553E4FF90120812C60982F6C
:100CA000907F922B909399029B7F90939A028295CA
:100CB000807F822B80939B028B7F80939C0289E9AB
:100CC00092E0089520E0EACF0F931F93CF93DF9334
:100CD000EC0161110E943106088110E02A8540E193
:100CE000249F900111248B8548E0849FC00111242A
:100CF000282B392B20628C8544E0849FC00111246D
:100D0000822B932B0E944206A80164E070E00E94AF
:100D10007C028FE891E00197F1F700C000000881A4
:100D200010E02A8590E1299F900111248B8548E0ED
:100D3000849FC0011124282B392B20628C8544E02C
:100D4000849FC0011124822B932B0E944206A8018C
:100D500064E070E00E947C028FE891E00197F1F777
:100D600000C00000088110E081E090E00E9442068F
:100D7000A80164E070E00E947C028FE39FE101978C
:100D8000F1F700C00000088110E08B8190E0880F2F
:100D9000991F2C812460822B0E944206A80164E0E6
:100DA00070E00E947C028FE891E00197F1F700C0AB
:100DB0000000088110E08D8124E0829FC001112491
:100DC0002E8130E0220F331F822B932B2F8128603E
:100DD000822B0E944206A80164E070E00E947C021F
:100DE0008FE891E00197F1F700C00000088110E062
:100DF000888528E0829FC0011124298544E0249F32
:100E000090011124822B932B80610E944206A8013D
:100E100064E070E00E947C028FE891E00197F1F7B6
:100E200000C00000C881D0E082E090E00E9442064D
:100E3000AE0164E070E00E947C028FE39FE10197C5
:100E4000F1F700C00000DF91CF911F910F9108953D
:100E5000FC0122819181992379F0913091F081E018
:100E6000820F233108F080E082839F5F211190E0A0
:100E7000918380919802089581E0820F8093980277
:100E8000EECF85E1FACF8150833038F4E82FF0E0DF
:100E9000E156FE4F8081860F089580E0FCCFFC0173
:100EA0006281643130F481E0860F828381810C9409
:100EB00043078181833030F48F5F818381E08283B7
:100EC00060E0F4CF80E0F9CFFC01892B89F0862F18
:100ED000807F90E1699FB0011124982F9D609083DD
:100EE00089608183862F8D60828369606383148229
:100EF0000895CF93C62F806890E00E9442064C2F41
:100F000050E064E070E00E947C028FE891E001977D
:100F1000F1F700C00000CF9108959F92AF92BF9269
:100F2000CF92DF92EF92FF920F931F93CF93DF93B5
:100F300000D000D01F92CDB7DEB761157105A9F0C2
:100F40008B017C016B0185E0982ECE0101965C013E
:100F5000F80101900020E9F73197E01BF10BC60181
:100F6000801B910B8E179F0788F00F900F900F90AA
:100F70000F900F90DF91CF911F910F91FF90EF9005
:100F8000DF90CF90BF90AF909F900895F701838539
:100F90008823F1F0C7010E944F07F70160810E948A
:100FA0007907F501892D11928A95E9F7F60161918A
:100FB0006F01C5010E946407F701408150E064E0C1
:100FC00070E0C5010E947C02F0EFFA95F1F7C0CF06
:100FD000C7010E942807E1CFCF93DF9300D000D054
:100FE000CDB7DEB799838A837B836C8344E050E07E
:100FF00060E070E0CE0101960E9438040F900F90DF
:101000000F900F90DF91CF910895CF92DF92EF92E2
:10101000FF92CF93DF931F92CDB7DEB789836A012A
:101020007B010E945D04C701B60192600E94EC073B
:1010300041E050E060E070E0CE0101960E9438048B
:101040000E9480040F90DF91CF91FF90EF90DF908E
:10105000CF900895CF92DF92EF92FF92CF93C82F57
:101060006A017B01892F0E940508B701A6014F5F25
:101070005F4F6F4F7F4F8C2FCF91FF90EF90DF909E
:10108000CF900C940508CF92DF92EF92FF921F93BE
:10109000CF93DF93EB01182F892F69017A01BA01F1
:1010A000A9010E940508B701A6014F5F5F4F6F4F6E
:1010B0007F4F812F0E940508B701A6014E5F5F4F49
:1010C0006F4F7F4F8D2F0E940508B701A6014D5F1E
:1010D0005F4F6F4F7F4F8C2FDF91CF911F91FF900C
:1010E000EF90DF90CF900C940508CF92DF92EF92B3
:1010F000FF920F931F93CF93DF938C016A017B01C3
:10110000E9010E945D04C701B60192600E94EC07EC
:10111000AE0170E060E0C8010E943804DF91CF9119
:101120001F910F91FF90EF90DF90CF900C9480046F
:10113000CF92DF92EF92FF92CF93DF93EC016A019F
:101140007B0118820E945D04C701B60193600E9472
:10115000EC071EBC0DB407FEFDCF8EB58883DF9172
:10116000CF91FF90EF90DF90CF900C948004CF92BE
:10117000DF92EF92FF920F931F93CF93DF931F9213
:10118000CDB7DEB78C016A017B01FC0111821082B0
:101190001982CE0101960E9498082981F801808168
:1011A0009181922B91838083B701A6014F5F5F4F9E
:1011B0006F4F7F4FCE0101960E9498082981F80158
:1011C00080819181822B918380830F90DF91CF91D9
:1011D0001F910F91FF90EF90DF90CF900895CF92E5
:1011E000DF92EF92FF920F931F93CF93DF931F92A3
:1011F000CDB7DEB78C016A017B01FC011082118240
:10120000128213821982CE0101960E9498082981C8
:10121000F80180819181A281B381B22B8083918377
:10122000A283B383B701A6014F5F5F4F6F4F7F4F1C
:10123000CE0101960E9498082981F8018081918150
:10124000A281B381A22B80839183A283B383B70150
:10125000A6014E5F5F4F6F4F7F4FCE0101960E94F8
:1012600098082981F80180819181A281B381922B14
:1012700080839183A283B383B701A6014D5F5F4F43
:101280006F4F7F4FCE0101960E9498082981F80187
:1012900080819181A281B381822B80839183A283FB
:1012A000B3830F90DF91CF911F910F91FF90EF903B
:1012B000DF90CF900895CF92DF92EF92FF920F933D
:1012C0001F93CF93DF93EC018B0169017A010E9498
:1012D0005D04C701B60193600E94EC07B801CE011E
:1012E0000E944E04DF91CF911F910F91FF90EF90DC
:1012F000DF90CF900C948004CF930E945D0485E032
:101300008EBD0DB407FEFDCF1EBC0DB407FEFDCF94
:10131000CEB50E9480048C2FCF910895CF93982F43
:101320009F7379F4C82F0E945D0481E08EBD0DB4D7
:1013300007FEFDCFCEBD0DB407FEFDCFCF910C94BF
:101340008004CF910895EAEBF2E081E290E0958F7E
:10135000848F8FE090E091A780A787E184AF87E139
:1013600090E090930A038093090389E092E1A0E062
:10137000B0E080930F0390931003A0931103B093F8
:1013800012030895CF93DF93E4E1F3E080E290E06D
:10139000A0E0B0E0808B918BA28BB38BCAEBD2E044
:1013A00080910F0390911003A0911103B09112034B
:1013B0008096A11DB11D80879187A287B3872CAD30
:1013C000820F911DA11DB11D84839583A683B783D0
:1013D00028A539A5AC01BD01420F531F611D711D28
:1013E00040835183628373838C8D9D8DB0E0A0E038
:1013F0008096A11DB11D840F951FA61FB71F848B5A
:10140000958BA68BB78B2091090330910A03820F2D
:10141000931FA11DB11D84879587A687B787DF918C
:10142000CF9108950E94A3090C94C209CF92DF9234
:10143000EF92FF92C12CD12C7601B701A60180E07A
:101440000E9405088FEFC81AD80AE80AF80A8FEF39
:10145000C816D80681E0E806F10479F7FF90EF900E
:10146000DF90CF9008954F925F926F927F928F920C
:101470009F92AF92BF92CF92DF92EF92FF920F9323
:101480001F93CF93DF938090090390900A03B12CB0
:10149000A12C0091F4021091F5020115110509F03B
:1014A000BEC0C0902003D0902103E0902203F090B2
:1014B0002303412C512C32018C0C9D1CAE1CBF1CF3
:1014C0008114910422E0A206B10408F097C0EC0157
:1014D00024E030E0B701A6018EE392E00E94750897
:1014E000688579858A859B85A7019601235F3F4F93
:1014F0004F4F5F4F0E944308B701A6014F5E5F4FF9
:101500006F4F7F4F8C850E940508B701A6014E5E84
:101510005F4F6F4F7F4F8D850E940508B701A60171
:101520004D5E5F4F6F4F7F4F8F850E940508B7015B
:10153000A6014C5E5F4F6F4F7F4F8E850E9405085E
:10154000B701A6014B5E5F4F6F4F7F4F88890E94A6
:101550000508B701A6014A5E5F4F6F4F7F4F89892B
:101560000E940508A7019601275F3F4F4F4F5F4F2D
:10157000C301B2010E9443084C825D826E827F8269
:10158000A70196012B5F3F4F4F4F5F4F60E070E028
:10159000CB010E944308188219821A821B82012BF8
:1015A00009F44EC0A30192012B5F3F4F4F4F5F4F95
:1015B000C701B6010E944308B701A6014C5F5F4F07
:1015C0006F4F7F4F85EA0E9405088091F402909149
:1015D000F50201969093F5028093F402C092EC021A
:1015E000D092ED02E092EE02F092EF028092E402DD
:1015F0009092E502A092E602B092E702DF91CF91CD
:101600001F910F91FF90EF90DF90CF90BF90AF9020
:101610009F908F907F906F905F904F900895C090B3
:10162000E402D090E502E090E602F090E7024090FC
:10163000EC025090ED026090EE027090EF023CCF11
:10164000C092E802D092E902E092EA02F092EB0244
:10165000B3CF4F925F926F927F928F929F92AF9291
:10166000BF92CF92DF92EF92FF92CF93DF9300D0A1
:1016700000D0CDB7DEB78091F4029091F502892BAE
:1016800009F45EC04090090350900A03712C612C4C
:10169000C090EC02D090ED02E090EE02F090EF02EC
:1016A00019821A821B821C82B701A6014C5F5F4F10
:1016B0006F4F7F4F80E00E940508B701A601475F8A
:1016C0005F4F6F4F7F4FCE0101960E94EF088981D7
:1016D0009A81AB81BC810097A105B10509F443C093
:1016E0009C01AD012B5F3F4F4F4F5F4F60E070E0BB
:1016F000CB010E94430889819A81AB81BC81809390
:10170000EC029093ED02A093EE02B093EF02812CD5
:10171000912C540184149504A604B704A8F1C09236
:10172000E402D092E502E092E602F092E7028091B4
:10173000F4029091F50201979093F5028093F402E0
:101740000F900F900F900F90DF91CF91FF90EF903F
:10175000DF90CF90BF90AF909F908F907F906F90D1
:101760005F904F9008951092EC021092ED0210924B
:10177000EE021092EF021092E8021092E90210922B
:10178000EA021092EB02C3CFB501A4014C0D5D1D1E
:101790006E1D7F1D80E00E9405088FEF881A980A51
:1017A000A80AB80AB7CFAF92BF92CF92DF92EF925A
:1017B000FF920F931F93CF93DF93CDB7DEB7AD9713
:1017C0000FB6F894DEBF0FBECDBF8C016A017B015E
:1017D00084E1F80111928A95E9F71DA65E01F9E20C
:1017E000AF0EB11CAB01960164E070E0C5010E9430
:1017F0005B096EE372E0C5010E943A10892BE9F0A3
:1018000083E492E00E941701BF92AF928EE392E0D0
:101810009F938F938FE592E09F938F93CE010196D4
:101820005C019F938F930E944A10C5010E9417018B
:101830000FB6F894DEBF0FBECDBFB701A6014B5F58
:101840005F4F6F4F7F4FC8010E94EF08B701A6019D
:10185000475F5F4F6F4F7F4FC80104960E94EF08AC
:10186000B701A601435F5F4F6F4F7F4FC8010896D6
:101870000E94EF08B701A6014F5E5F4F6F4F7F4F89
:10188000C8010C960E949808B701A6014E5E5F4FF2
:101890006F4F7F4FC8010D960E949808B701A601AF
:1018A0004D5E5F4F6F4F7F4FC8010F960E949808A3
:1018B000B701A6014C5E5F4F6F4F7F4FC8010E9678
:1018C0000E949808B701A6014B5E5F4F6F4F7F4F94
:1018D000C80140960E949808B701A6014A5E5F4F72
:1018E0006F4F7F4FC80141960E949808AD960FB682
:1018F000F894DEBF0FBECDBFDF91CF911F910F9146
:10190000FF90EF90DF90CF90BF90AF900895CF926F
:10191000DF92EF92FF92CF93DF93EC016A017B019C
:10192000AB0196012B5F3F4F4F4F5F4F688179812D
:101930008A819B810E944308A7019601275F3F4F40
:101940004F4F5F4F6C817D818E819F810E94430844
:10195000A7019601235F3F4F4F4F5F4F6885798501
:101960008A859B850E944308B701A6014F5E5F4FA1
:101970006F4F7F4F8C850E940508B701A6014E5E10
:101980005F4F6F4F7F4F8D850E940508B701A601FD
:101990004D5E5F4F6F4F7F4F8F850E940508B701E7
:1019A000A6014C5E5F4F6F4F7F4F8E850E940508EA
:1019B000B701A6014B5E5F4F6F4F7F4F88890E9432
:1019C0000508B701A6014A5E5F4F6F4F7F4F8989B7
:1019D000DF91CF91FF90EF90DF90CF900C940508AE
:1019E000CF92DF92EF92FF92C0901C03D0901D0324
:1019F000E0901E03F0901F0324E030E0B701A60141
:101A00008FE792E00E947508B701A6014B5E5F4F19
:101A10006F4F7F4F8091F4029091F5020E942A0847
:101A2000A70196012B5F3F4F4F4F5F4F60E070E083
:101A3000CB010E944308A7019601275F3F4F4F4FFC
:101A40005F4F60E070E0CB010E944308A701960160
:101A5000235F3F4F4F4F5F4F60E070E0CB010E942C
:101A60004308A70196012F5E3F4F4F4F5F4F60E045
:101A700070E0CB010E944308B701A6014C5F5F4FA5
:101A80006F4F7F4F85EAFF90EF90DF90CF900C94DF
:101A900005088F929F92AF92BF92CF92DF92EF9202
:101AA000FF920F931F93CF93F82FE62FC42F8090B0
:101AB000240390902503A0902603B0902703A3E071
:101AC000B0E0A90198010E9420106B017C01C80CB4
:101AD000D91CEA1CFB1CB701A601475F5F4F6F4F83
:101AE0007F4F80910F0390911003A0911103B0914B
:101AF0001203880D991DAA1DBB1D4C015D0129E033
:101B0000820E911CA11CB11C84169506A606B70670
:101B100008F1AE2E8F2F0E940508B701A601465F7F
:101B20005F4F6F4F7F4F8A2D0E940508B701A601B6
:101B3000455F5F4F6F4F7F4F8C2FCF911F910F915C
:101B4000FF90EF90DF90CF90BF90AF909F908F90DD
:101B50000C940508CF911F910F91FF90EF90DF90AB
:101B6000CF90BF90AF909F908F900895CF92DF92CB
:101B7000EF92FF920F931F93CF93DF93EC01C090EE
:101B80002803D0902903E0902A03F0902B03809142
:101B90009E01882391F024E030E0B701A6018EE396
:101BA00092E00E94750810929E01C092F002D092BD
:101BB000F102E092F202F092F302A7019601235F94
:101BC0003F4F4F4F5F4F688579858A859B850E947F
:101BD0004308B701A6014F5E5F4F6F4F7F4F8C8563
:101BE0000E940508B701A6014E5E5F4F6F4F7F4F01
:101BF0008D850E940508B701A6014D5E5F4F6F4FAE
:101C00007F4F8F850E940508B701A6014C5E5F4F8C
:101C10006F4F7F4F8E850E940508B701A6014B5E6E
:101C20005F4F6F4F7F4F88890E940508B701A6015B
:101C30004A5E5F4F6F4F7F4F89890E940508088574
:101C400019852A853B8548896E858F850E94490DB7
:101C5000DF91CF911F910F91FF90EF90DF90CF9088
:101C600008950F931F93CF93DF93CDB7DEB764979B
:101C70000FB6F894DEBF0FBECDBF8091F4029091F5
:101C8000F502892BA1F04091E8025091E9026091A0
:101C9000EA027091EB02CE0101960E94D30B89817A
:101CA0009A81AB81BC81892B8A2B8B2B59F464964A
:101CB0000FB6F894DEBF0FBECDBFDF91CF911F915D
:101CC0000F91089509851A852B853C8549896F8573
:101CD00088890E94490D49815A816B817C81DBCFC3
:101CE000CF92DF92EF92FF920F931F93C12CD12CD2
:101CF00076019701860140E060E080E00E94490D96
:101D00008FEFC81AD80AE80AF80AC11482E1D80687
:101D1000E104F10471F71F910F91FF90EF90DF90B4
:101D2000CF900895CF92DF92EF92FF92C09024035C
:101D3000D0902503E0902603F090270389E0C80E99
:101D4000D11CE11CF11CC11486E0D806E104F104A9
:101D500028F0FF90EF90DF90CF900895B701A60193
:101D600080E00E9405088FEFC81AD80AE80AF80A2E
:101D7000EACFCF92DF92EF92FF92CF93DF93C090A2
:101D80001803D0901903E0901A03F0901B0322E08F
:101D900030E0B701A60184E892E00E947508A7012F
:101DA00096012B5F3F4F4F4F5F4FCAEBD2E06E8DD6
:101DB0007F8D88A199A10E944308B701A601475FC2
:101DC0005F4F6F4F7F4F8AA19BA10E942A08B701E6
:101DD000A601455F5F4F6F4F7F4F8CA19DA10E9471
:101DE0002A08B701A601435F5F4F6F4F7F4F8EA157
:101DF0009FA10E942A08B701A6014C5F5F4F6F4F59
:101E00007F4F85EADF91CF91FF90EF90DF90CF90E9
:101E10000C940508CF92DF92EF92FF92C0901803C6
:101E2000D0901903E0901A03F0901B03B701A601AC
:101E30004B5F5F4F6F4F7F4F88ED92E00E94EF083E
:101E4000B701A601475F5F4F6F4F7F4F8CED92E068
:101E50000E94B708B701A601455F5F4F6F4F7F4FE4
:101E60008EED92E00E94B708B701A601435F5F4F75
:101E70006F4F7F4F80EE92E0FF90EF90DF90CF901A
:101E80000C94B708CF92DF92EF92FF92CF93DF933B
:101E9000C0901403D0901503E0901603F090170340
:101EA00024E030E0B701A60189E892E00E947508BD
:101EB000B701A601435E5F4F6F4F7F4FCAEBD2E081
:101EC000888D998D0E942A08B701A601415E5F4F57
:101ED0006F4F7F4F8A8D9B8D0E942A08B701A60104
:101EE0004B5F5F4F6F4F7F4F2CE030E0CE010E9481
:101EF0007508B701A6014F5E5F4F6F4F7F4F2CE013
:101F000030E086EC92E00E947508B701A6014C5FB4
:101F10005F4F6F4F7F4F85EADF91CF91FF90EF903A
:101F2000DF90CF900C940508CF92DF92EF92FF9252
:101F3000C0901403D0901503E0901603F09017039F
:101F4000B701A601435E5F4F6F4F7F4F82ED92E076
:101F50000E94B708B701A601415E5F4F6F4F7F4FE8
:101F600084ED92E00E94B70880919E0281111BC00F
:101F7000A70196012B5F3F4F4F4F5F4F6CE070E022
:101F80008AEB92E00E945B09A70196012F5E3F4F0A
:101F90004F4F5F4F6CE070E086EC92E00E945B096F
:101FA00081E080939E02FF90EF90DF90CF900895A4
:101FB0000E94BD0081111FC086ED91E00E941701B3
:101FC00061E08FE992E00E94640665EE71E08FE9BE
:101FD00092E00E948D070E9453008CEF91E00E94D6
:101FE00017012FEF83ED90E3215080409040E1F7FF
:101FF00000C00000F2CF90E080E00895A1E21A2E28
:10200000AA1BBB1BFD010DC0AA1FBB1FEE1FFF1F9C
:10201000A217B307E407F50720F0A21BB30BE40BEC
:10202000F50B661F771F881F991F1A9469F7609533
:102030007095809590959B01AC01BD01CF010895ED
:102040000E942B10A59F900DB49F900DA49F800D12
:10205000911D11240895A29FB001B39FC001A39FB9
:10206000700D811D1124911DB29F700D811D1124D1
:10207000911D0895FB01DC018D91019080190110E3
:10208000D9F3990B0895FB01DC0101900D9200201A
:10209000E1F70895AEE0B0E0E0E5F0E10C94F9126C
:1020A0000D891E8986E08C831A8309838FEF9FE751
:1020B0009E838D83AE01475E5F4F6F89788DCE0121
:1020C00001960E946D102F813885020F131FF801B1
:1020D00010822E96E4E00C941513ABE0B0E0E3E739
:1020E000F0E10C94EB127C013B018A01FC011782A8
:1020F0001682838181FFC8C1CE0101965C01F70180
:102100009381F30193FD859193FF81913F01882392
:1021100009F453C1853239F493FD859193FF819180
:102120003F01853229F4B70190E00E945D12E7CFAC
:10213000912C212C312CFFE1F31538F08B3211F169
:1021400090F4803209F1833229F137FC3CC020ED54
:10215000280F2A3050F536FE20C08AE0989E200DC8
:102160001124922E06C08D3291F0803371F768945D
:1021700030F8F30193FD859193FF81913F01811127
:10218000DACF21C0689431F8689432F8F2CF6894BD
:1021900033F8EFCF689434F8ECCFEAE02E9E200DB0
:1021A0001124222E689435F8E4CF8E3229F436FCBF
:1021B00004C1689436F8DDCF8C3619F4689437F88A
:1021C000D8CF8836B1F2982F9F7D95549330E0F0A8
:1021D0008336A1F18337C1F1833509F063C028014B
:1021E000F2E04F0E511CF801C080D180692D70E0E3
:1021F00036FC02C06FEF7FEFC6010E9447124C0110
:10220000689437F882010AC00C5F1F4FFFE3F9831F
:1022100088248394912C6501E89437F833FE2DC00F
:10222000522C8114910471F5552009F468CFB7013F
:1022300080E290E00E945D125A94F6CFF80180810E
:1022400089830E5F1F4FE4CF2801F2E04F0E511C2F
:10225000F801C080D180692D70E036FC02C06FEFBC
:102260007FEFC6010E9452124C018201D5CFB70107
:1022700080E290E00E945D122A942814190409F06B
:10228000B0F7CECFF60137FC859137FE81916F0113
:10229000B70190E00E945D1251105A94F1E08F1A3C
:1022A0009108BFCF843619F0893609F077C0F8015C
:1022B00037FE6BC060817181828193810C5F1F4FFB
:1022C000F32DFF763F2E97FF09C09095809570956E
:1022D00061957F4F8F4F9F4F689437F82AE030E029
:1022E000A5010E948D12C82ECA188C2C432C36FED4
:1022F0000CC0E89440F8C91440F434FE05C032FC28
:1023000003C0F32DFE7E4F2E892C44FE95C0FE01A6
:10231000EC0DF11D8081803309F087C0242D297ECA
:10232000422E842D8870582E43FC95C040FE8FC0ED
:102330009C2C821418F42C0C922C981844FE91C0FA
:10234000B70180E390E00E945D1242FE09C088E779
:1023500090E041FE02C088E590E0B7010E945D1266
:10236000C91408F48AC0CA94D12C9FEFC91AD90A9B
:10237000CA0CDB1CF60182916F01B70190E00E944C
:102380005D12AC14BD04B1F74FCF60817181072E8F
:10239000000C880B990B0E5F1F4F92CFD32CE89443
:1023A000D4F82AE030E0853739F1232D297FD22E69
:1023B0008F3601F148F48835A9F0F70186819781BD
:1023C0002B96E2E10C940713803749F08837A9F780
:1023D000D4FE02C06894D2F820E130E00DC06894C9
:1023E000D4F8F6CF34FE03C0822F8660D82E20E1C9
:1023F00032E002C028E030E0F801D7FE0FC0608173
:102400007181828193810C5F1F4FA5010E948D1203
:10241000C82ECA183D2CE89437F867CF60817181C7
:1024200090E080E00E5F1F4FF0CF42FC02C083942B
:1024300078CF8394839475CF842D867809F471CFF7
:10244000F6CFB70180E290E00E945D12839482147F
:10245000C0F3512C73CF522C5818821408F46ECF4D
:10246000F8CF842D867809F47BCF8BE241FE80E2A1
:1024700047FC8DE2B70190E071CFB70180E390E0B7
:102480000E945D129A946CCF8FEF9FEF99CFFC0161
:102490000590615070400110D8F7809590958E0F8F
:1024A0009F1F0895FC016150704001900110D8F702
:1024B000809590958E0F9F1F08950F931F93CF9334
:1024C000DF93182F092FEB018B8181FD09C01FEFCE
:1024D0000FEF812F902FDF91CF911F910F910895D2
:1024E00082FF14C02E813F818C819D81281739077E
:1024F0003CF4E881F981CF010196998388831083A8
:102500008E819F8101969F838E83E3CFE885F98535
:10251000812F0995892BA1F3DACFFA01AA27283058
:1025200051F1203181F1E8946F936E7F6E5F7F4FA0
:102530008F4F9F4FAF4FB1E03ED0B4E03CD0670F1C
:10254000781F891F9A1FA11D680F791F8A1F911D6F
:10255000A11D6A0F711D811D911DA11D20D009F4BF
:1025600068943F912AE0269F11243019305D319301
:10257000DEF6CF010895462F4770405D4193B3E0EA
:102580000FD0C9F7F6CF462F4F70405D4A3318F091
:10259000495D31FD4052419302D0A9F7EACFB4E042
:1025A000A6959795879577956795BA95C9F70097FA
:1025B0006105710508959B01AC010A2E069457959B
:1025C000479537952795BA95C9F7620F731F841FF2
:1025D000951FA01D08952F923F924F925F926F9288
:1025E0007F928F929F92AF92BF92CF92DF92EF92A3
:1025F000FF920F931F93CF93DF93CDB7DEB7CA1B24
:10260000DB0B0FB6F894DEBF0FBECDBF09942A884E
:10261000398848885F846E847D848C849B84AA84F6
:10262000B984C884DF80EE80FD800C811B81AA8183
:10263000B981CE0FD11D0FB6F894DEBF0FBECDBF4E
:08264000ED010895F894FFCFAD
:102648000000000000093D0040000000000000E814
:1026580003000100000200010200240025002300FD
:102668000100000000000000000000000000000061
:102678000000000000000000000000000000000052
:102688000000000000000000000000000000000042
:102698000000000000000000000000000000000032
:1026A8000000000000000000000000000000000022
:1026B8000000000000000000000000000000000012
:1026C8000000000000802508010000000000000054
:1026D80024F4008025000008801A06000505014042
:1026E8001454020103534E414B452047414D4500C8
:1026F8004C55434153204E4153430047414D4520DB
:102708004E414D453A20000A504C41594552204E01
:10271800414D453A20007061737365642073797385
:1027280074656D0A0068656C6C6F2066726F6D2049
:10273800746865206E6577204150490068656C6C47
:102748006F20686572650A0053504920494E495404
:102758005F4641494C203C25783E0A0049324320D7
:10276800494E49545F4641494C203C25783E0A0071
:1027780050617373656420636C6F636B0A004E4F1E
:102788004445004572726F722E2E2E203C496E769B
:10279800616C6964204865616465723E200A002E98
:1027A8002E65787065637465642E2E3C25733E2E05
:1027B8002E61637475616C2E2E3C25733E0A00539E
:0E27C80054434B00434F4D4D0053434F5200BE
:00000001FF
