:100000000C9434000C9451000C9451000C9439075A
:100010000C9443070C944D070C9451000C94510020
:100020000C9451000C9451000C9451000C9451000C
:100030000C9451000C9451000C9451000C945100FC
:100040000C9451000C94E6060C941B070C942F079B
:100050000C9425070C9451000C9451000C94510001
:100060000C9411070C94510011241FBECFEFD8E05F
:10007000DEBFCDBF14E0A0E0B1E0E8EFF8E202C0DF
:1000800005900D92A032B107D9F725E0A0E2B4E0C7
:1000900001C01D92A531B207E1F70E94F0100C9447
:1000A0007A140C940000CF93DF93C3EAD4E081E884
:1000B00090E09B8F8A8F89E990E0998F888F6CEA16
:1000C00071E08FEA94E00E949B1167EB71E0CE0132
:1000D0000E949B110E944A101B8E1A8E198E188E38
:1000E0008CE0EFEAF4E0DF01982F1D929A95E9F792
:1000F000DE011D928A95E9F70E94AC1082EC91E036
:100100000E949F01EFE1F3E03197F1F700C000009A
:100110008FEA94E00E949F018FE193E00197F1F74D
:1001200000C000008EEC91E00E949F01AFE1B3E0BF
:100130001197F1F700C00000CE010E949F018FE0EF
:1001400093E0DF91CF910C949F01EF92FF921F9368
:10015000CF93DF93CDB7DEB76E970FB6F894DEBFBF
:100160000FBECDBFCE0101967C018EE1F701119249
:100170008A95E9F70E94FE01182F811121C0FFEF37
:1001800021EE84E0F15020408040E1F700C0000003
:100190000E949904182F882301F11F928F938DEDEF
:1001A00091E09F938F93FF92EF920E94A211C7015B
:1001B0000E949F010F900F900F900F900F900F9043
:1001C000812F6E960FB6F894DEBF0FBECDBFDF91C4
:1001D000CF911F91FF90EF9008959FEFE1EEF4E033
:1001E0009150E040F040E1F700C000000E9498020A
:1001F000182F882329F01F928F9381EF91E0D1CFA0
:100200002FEF81EE94E0215080409040E1F700C054
:100210000000D6CFEF92FF920F931F93CF93DF93FF
:10022000CDB7DEB7CC52D1400FB6F894DEBF0FBECB
:10023000CDBF00E011E0E0E9F1E083818F9382819E
:100240008F9381818F9380818F9385E092E09F933C
:100250008F93CE0101967C019F938F930E94A211F0
:10026000C7010E949F01F80183891F928F9385899E
:100270001F928F93808D1F928F9384891F928F93EB
:1002800086891F928F9387891F928F9380898F937E
:1002900087858F9382898F9381898F938AE192E0FA
:1002A0009F938F93FF92EF920E94A211C7010E9429
:1002B0009F01F80181851F928F9380851F928F93F4
:1002C00087818F9386818F9385818F9384818F938C
:1002D00083818F9382818F9381818F9380818F938C
:1002E00081E193E09F938F93FF92EF920E94A2117E
:1002F0000FB6F894DEBF0FBECDBFC7010E949F01AD
:10030000C45DDE4F0FB6F894DEBF0FBECDBFDF91E8
:10031000CF911F910F91FF90EF900895680F791F73
:100320008617970711F4089500002091C00025FF5B
:10033000FBCFFC012191CF012093C600F1CFDC015E
:10034000FC0101900020E9F73197E81BF90B9D01B2
:10035000281B390B2E173F0710F00895000020913D
:10036000C00025FFFBCF2D912093C600E9CFCF928F
:10037000DF92EF92FF920F931F93009186011091ED
:10038000870130E020E0C901B80143E0660F771F24
:10039000881F991F4A95D1F7C0909001D090910184
:1003A000E0909201F09093016C0D7D1D8E1D9F1DBC
:1003B000A9019801E4E0220F331F441F551FEA955D
:1003C000D1F70E94461121503109C901B0E0A0E0E7
:1003D00080938C0190938D01A0938E01B0938F0137
:1003E0001F910F91FF90EF90DF90CF900895519A59
:1003F0008AB11AB88BB183608BB908950E94F70156
:100400000E94B70180918C0190918D01A0918E0185
:10041000B0918F01492F5A2F6B2F77274093C5003A
:100420008093C400E2ECF0E080818F708083808153
:1004300088608083A0ECB0E08C918D7F8C93A1ECE0
:10044000B0E088E18C938C918B7F8C938081866067
:10045000808380E00895CF93C0910801C43009F4EF
:100460004AC020F4C13059F08AE043C0C03109F4D9
:100470004BC0C034C9F78091B90082603FC0809101
:10048000B9008C7F8093B9006091900170919101C7
:100490008091920190919301209104013091050186
:1004A00040910601509107010E944611CA01B9010D
:1004B00060517109810991092C2F30E0220F331FFF
:1004C000032E000C440B550B0E944611223008F4F9
:1004D00022E02093B8008091B80090E0B0E0A0E066
:1004E0008093000190930101A0930201B093030156
:1004F00080E0CF9108958091B9008D7F8093B900FD
:100500008091B9008160BECF8091B90082608093F4
:10051000B9008091B9008E7FB5CF809109018230FA
:1005200018F08051823010F480E008958AE0089538
:1005300087B18F7C87B988B1806388B985E08A9557
:10054000F1F70000359B0CC0349B0AC085E38A9507
:10055000F1F700000E942B02811103C00C948D0260
:100560008DE00895880F682B8091BC00846A809389
:10057000BC008091BC0087FFFCCF6093BB008091E2
:10058000BC008F7D8093BC008091BC008468809308
:10059000BC008091BC0087FFFCCF8091B900887FB0
:1005A0000895ECEBF0E08081846980838091B9004C
:1005B000887F08951F93CF93DF93D82F162FCAE01B
:1005C00061E0113009F060E08D2F0E94B2028831A5
:1005D00059F09091BC0094699093BC0095E09A9575
:1005E000F1F70000C15061F7DF91CF911F9108959D
:1005F0008091B90008950F931F93CF93DF93EC017F
:10060000892B21F1842F8B0160E00E94DA020C0F0C
:100610001D1F94E88831B1F08091B900DF91CF912E
:100620001F910F910C94D1028091BC0087FFFCCFE9
:1006300089918093BB009093BC008091B900887F22
:100640008832D9F7C017D10779F7E8CF81E0DF9179
:10065000CF911F910F910895009739F0FC01680F19
:10066000791F94E8E617F70711F481E00895809167
:10067000BC0087FFFCCF81918093BB009093BC00AE
:100680008091B900887F8832D9F7ECCF0F931F9300
:10069000CF93DF93EC0181E02097A1F0842F8B01B1
:1006A00061E00E94DA020C0F1D1F94E88831E9F026
:1006B0008091B9008091BC0084698093BC008091D6
:1006C000B900887FDF91CF911F910F91089580919C
:1006D000BC0087FFFCCF89918093BB009093BC0046
:1006E0008091B900887F8832D9F7C017D10779F790
:1006F000E1CF0097F1F0FC01680F791F94E8E6174D
:10070000F70741F49091B900987F81E0983291F415
:1007100080E008958091BC0087FFFCCF8191809399
:10072000BB009093BC008091B900887F8832D9F7D4
:10073000E6CF81E008951CBC85B18C6385B984B196
:10074000837C84B9E0E0F1E0A38DB48D4C91278DDA
:1007500081E090E0BC0102C0660F771F2A95E2F7A6
:100760009B01209524232C93A18DB28D2C91378D44
:1007700001C0880F3A95EAF7809582238C931092F6
:10078000270480E00895CF93DF93A0911901B091E1
:100790001A01E0911B01F0911C01C0911D01D09143
:1007A0001E0120911F01809118018330A1F1843036
:1007B00009F45AC0823009F063C084B18C6284B9F4
:1007C000249885B18C6385B93C9181E090E0022E3C
:1007D00001C0880F0A94EAF7932F982B9C9390817D
:1007E000892B808300C000001D9904C082E0DF9146
:1007F000CF9108951B9BFACF1A9BF8CF888190E088
:1008000002C0959587952A95E2F780FFEFCF00C04B
:10081000000080E0ECCF84B1886284B984B18B7E23
:1008200084B985B18C6385B93C9181E090E0022E5A
:1008300001C0880F0A94EAF7932F982B9C9390811C
:10084000892B808300C000001D9BD0CF1B9BCECF87
:100850001A9BCCCF888190E002C0959587952A9508
:10086000E2F780FDD6CFC2CF249A84B1837D84B9CC
:1008700085B18C6385B900C000001C99CACFB6CF82
:1008800081E0B5CF809113018130F9F030F08230F2
:1008900009F1833019F181E0089510920A01109254
:1008A0000B01809115018031B1F1E0F4843031F118
:1008B000883059F1823079F710920D0110920E01B3
:1008C00081E080930C0180E0089510920A018093EA
:1008D0000B01E7CF81E080930A01E1CF81E08093B3
:1008E0000A01F5CF8034E9F08038F9F0803299F6CA
:1008F00081E080930D0110920E01E3CF10920D0163
:1009000010920E0110920C01DECF10920D0181E0C9
:1009100080930E01D6CF10920D0181E080930E01DD
:10092000F1CF81E080930D01EBCF81E080930D0149
:10093000F5CFCF938091270481110E949B030E94E1
:100940004204C82F89E993E0C11107C00E94C30384
:10095000C82F882339F088EA93E00E949F018C2FEA
:10096000CF91089580911801825091E0823008F073
:1009700090E08CB52091160120FB87F98CBD8CB5D9
:100980003091140130FB85F98CBD8CB58F7E92952A
:10099000907F892B8CBD8CB590910A0190FB83F9D7
:1009A0008CBD8CB590910B0190FB82F98CBD8CB500
:1009B00090910D0190FB81F98CBD8CB590910E0149
:1009C00090FB80F98CBD8DB590910C0190FB80F966
:1009D0008DBD8CB59091170190FB86F98CBD2223BB
:1009E00009F0789481E080932704B9CF0F931F9387
:1009F000FC018F01081B190B30E020E004171507DC
:100A00002607370718F01F910F91089521912EBDE9
:100A10000DB407FEFDCFEDCF680F791F861797073E
:100A200009F408951EBC0DB407FEFDCF2EB5FC01E0
:100A30002193CF01F3CFE0911B01F0911C012081A4
:100A400030911F0181E090E001C0880F3A95EAF7EC
:100A50008095822380830000E0911D01F0911E01AA
:100A6000808190E020911F0102C0959587952A957D
:100A7000E2F780FF04C087EB93E00E949F0180E0D3
:100A8000089580919D01853021F50CB404FE04C0C9
:100A90000E941B058093230480912304811148C088
:100AA00080E291E0892B09F440C010922204109258
:100AB000210486E080939D018CB580688CBD78947C
:100AC0000CB404FE06C08FEF8EBD88E080938501D4
:100AD000089580919D01863051F52EB5222379F03D
:100AE0008091210490912204AC014F5F5F4F50939D
:100AF00022044093210480509F4FFC0120A32091A9
:100B0000840180912104909122042817190609F08C
:100B1000E0F684E68093840189E08093850180E299
:100B200091E00E949F0189E0089585E0089587E0A3
:100B30000895E0911B01F0911C01808190911F01AB
:100B400021E030E001C0220F9A95EAF7822B8083E2
:100B50000000E0911D01F0911E01808190E0209144
:100B60001F0102C0959587952A95E2F780FD04C084
:100B700087EB93E00E949F0180E008950F931F93FD
:100B8000CF93DF93182F092FEB018CB58F778CBD96
:100B90000CB404FC10C0E12FF02FCE0FDF1FEC17B8
:100BA000FD0791F40CB404FE29C0DF91CF911F9191
:100BB0000F910C9499050E941B05882361F3DF9126
:100BC000CF911F910F91089581918EBD90E080E0AB
:100BD0000DB407FCE4CF00009C012F5F3F4F409114
:100BE0000F01509110014817590730F40CB404FC60
:100BF0000E94990582E0E3CFC901EACF80E0DFCF10
:100C000080919E01853001F50CB404FE04C00E9461
:100C10001B058093260480912604811133C080E255
:100C200091E0892B09F442C080918401882309F462
:100C30003FC0109225041092240486E080939E0108
:100C40008CB580688CBD789480919E018630C9F403
:100C5000809124049091250420918401281719067D
:100C600091F088F027E0209385019C012F5F3F4F92
:100C7000309325042093240480509F4FFC0180A1D1
:100C80008EBD87E008950CB404FE04C00E9499054F
:100C90008093260489E080938501109225041092A8
:100CA000240485E080939E0189E0089585E00895FD
:100CB00086E008950097F9F04091110150911201DA
:100CC0006417750708F4AB01409384012091160165
:100CD000222369F0BC0180E291E00E9489110E9408
:100CE0000006882349F0873039F480E00895BA017E
:100CF0000E94BE05F6CF85E008950F931F93CF9312
:100D0000DF93182F092FEB018CB58F778CBD0CB4B6
:100D100004FC11C0E12FF02FCE0FDF1F2FEFCE17F5
:100D2000DF0791F40CB404FE2DC0DF91CF911F9129
:100D30000F910C9499050E941B05882359F3DF91AC
:100D4000CF911F910F9108950CB404FC2EBD90E03B
:100D500080E00DB407FE03C08EB58193E0CF0000A4
:100D6000AC014F5F5F4F60910F01709110016817E8
:100D7000790730F40CB404FC0E94990582E0DFCFBF
:100D8000CA01E7CF80E0DBCF0097F1F0209111019D
:100D9000309112016217730708F49B0120938401BC
:100DA00040911601442361F09093A2048093A10422
:100DB0000E944105882349F0883039F480E0089585
:100DC000B9010E947D06F6CF85E008951F920F922B
:100DD0000FB60F9211242F933F934F935F936F930E
:100DE0007F938F939F93AF93BF93EF93FF938091E4
:100DF0008501873099F40E940006FF91EF91BF9121
:100E0000AF919F918F917F916F915F914F913F91A2
:100E10002F910F900FBE0F901F9018950E944105C3
:100E2000ECCF1F920F920FB60F9211240F900FBEAE
:100E30000F901F9018951F920F920FB60F921124CA
:100E40000F900FBE0F901F9018951F920F920FB624
:100E50000F9211240F900FBE0F901F9018951F92A4
:100E60000F920FB60F9211240F900FBE0F901F908C
:100E700018951F920F920FB60F9211240F900FBE6C
:100E80000F901F9018951F920F920FB60F9211247A
:100E90000F900FBE0F901F9018951F920F920FB6D4
:100EA0000F9211240F900FBE0F901F901895FC0108
:100EB00081E083831482858316821782108681875E
:100EC0001286838714861282118287E280830895B6
:100ED00010922D049C012150310923303105C0F4BA
:100EE0002D553E4FF90120812C60982F907F922B39
:100EF000909329049B7F90932A048295807F822B74
:100F000080932B048B7F80932C0489E294E00895D6
:100F100020E0EACF0F931F93CF93DF93EC01611191
:100F20000E945707088110E02A8540E1249F900124
:100F300011248B8548E0849FC0011124282B392B74
:100F400020628C8544E0849FC0011124822B932B66
:100F50000E946807A80164E070E00E94FB028FE82D
:100F600091E00197F1F700C00000088110E02A85A8
:100F700090E1299F900111248B8548E0849FC00156
:100F80001124282B392B20628C8544E0849FC001DA
:100F90001124822B932B0E946807A80164E070E063
:100FA0000E94FB028FE891E00197F1F700C000007A
:100FB000088110E081E090E00E946807A80164E0E9
:100FC00070E00E94FB028FE39FE10197F1F700C000
:100FD0000000088110E08B8190E0880F991F2C8120
:100FE0002460822B0E946807A80164E070E00E94E0
:100FF000FB028FE891E00197F1F700C00000088143
:1010000010E08D8124E0829FC00111242E8130E008
:10101000220F331F822B932B2F812860822B0E945B
:101020006807A80164E070E00E94FB028FE891E08D
:101030000197F1F700C00000088110E0888528E0E2
:10104000829FC0011124298544E0249F900111242E
:10105000822B932B80610E946807A80164E070E0F6
:101060000E94FB028FE891E00197F1F700C00000B9
:10107000C881D0E082E090E00E946807AE0164E0A1
:1010800070E00E94FB028FE39FE10197F1F700C03F
:101090000000DF91CF911F910F910895FC012281F3
:1010A0009181992379F0913091F081E0820F233181
:1010B00008F080E082839F5F211190E0918380910E
:1010C0002804089581E0820F80932804EECF85E103
:1010D000FACF8150833038F4E82FF0E0E056FE4F2D
:1010E0008081860F089580E0FCCFFC01628164312D
:1010F00030F481E0860F828381810C9469088181BC
:10110000833030F48F5F818381E0828360E0F4CFAD
:1011100080E0F9CFFC01892B89F0862F807F90E158
:10112000699FB0011124982F9D609083896081830D
:10113000862F8D6082836960638314820895CF93C4
:10114000C62F806890E00E9468074C2F50E064E052
:1011500070E00E94FB028FE891E00197F1F700C078
:101160000000CF9108959F92AF92BF92CF92DF92ED
:10117000EF92FF920F931F93CF93DF9300D000D095
:101180001F92CDB7DEB761157105A9F08B017C0107
:101190006B0185E0982ECE0101965C01F80101906B
:1011A0000020E9F73197E01BF10BC601801B910B82
:1011B0008E179F0788F00F900F900F900F900F9051
:1011C000DF91CF911F910F91FF90EF90DF90CF9023
:1011D000BF90AF909F900895F70183858823F1F029
:1011E000C7010E947508F70160810E949F08F50100
:1011F000892D11928A95E9F7F60161916F01C50178
:101200000E948A08F701408150E064E070E0C50167
:101210000E94FB02F0EFFA95F1F7C0CFC7010E94E0
:101220004E08E1CFDC01CB01B42BEEE2F4E0B08359
:10123000A183928363830895EF92FF920F931F938C
:10124000CF93DF938C017B01CA01B9012091850105
:10125000283039F120918501273019F1EEE2F4E0D0
:1012600024E6DF011D922A95E9F742E00E94120967
:10127000E701C136D10510F0C0E6D0E0AE01B801FB
:1012800082E394E00E948911BE016C5F7F4F8EE281
:1012900094E0DF91CF911F910F91FF90EF900C940C
:1012A0005A060000D3CFCF93DF9300D0CDB7DEB77F
:1012B00099838A839A01AB0162E070E0CE010196C6
:1012C0000E941C090F900F90DF91CF910895CF934A
:1012D000DF9300D000D0CDB7DEB799838A837B83BC
:1012E0006C8364E070E0CE0101960E941C090F90AF
:1012F0000F900F900F90DF91CF9108950F931F9350
:10130000CF93DF938C01EB01CA01B90120918501D4
:10131000283061F120918501273041F1EEE2F4E0BF
:1013200024E6DF011D922A95E9F743E00E941209A5
:10133000F8940E941B0544E050E060E070E08EE20B
:1013400094E00E94F604C136D10510F0C4E6D0E066
:10135000AE01B8018EE294E00E948911BE01C8017D
:10136000DF91CF911F910F910C94C4060000CECF56
:10137000FF920F931F93CF93DF9300D0CDB7DEB7CB
:101380008C01F090160110921601F894FC01118264
:1013900010821A8219829A01AB0162E070E0CE01DC
:1013A00001960E947E0989819A819827892798272A
:1013B000F80191838083FF2021F081E08093160162
:1013C00078940F900F90DF91CF911F910F91FF9024
:1013D0000895FF920F931F93CF93DF9300D000D017
:1013E000CDB7DEB78C01F090160110921601F8947B
:1013F000FC01108211821282138219821A821B82CE
:101400001C829A01AB0164E070E0CE0101960E945B
:101410007E098830D9F069817A818B819C810E9414
:101420006811F8016083718382839383F11013C084
:101430000F900F900F900F90DF91CF911F910F9110
:10144000FF900895F5E0FA95F1F70000809185018D
:101450008930C1F7E0CF81E0809316017894E8CF1E
:10146000CF930E941B0585E08EBD0DB407FEFDCF16
:101470001EBC0DB407FEFDCFCEB50E9499058C2F82
:10148000CF910895CF93982F9F7379F4C82F0E941E
:101490001B0581E08EBD0DB407FEFDCFCEBD0DB4A2
:1014A00007FEFDCFCF910C949905CF910895E3EA03
:1014B000F4E081E290E0958F848F8FE090E091A737
:1014C00080A787E184AF87E190E09093F304809355
:1014D000F20489E092E1A0E0B0E08093F8049093F8
:1014E000F904A093FA04B093FB040895CF93DF931B
:1014F000EDEFF4E080E290E0A0E0B0E0808B918B33
:10150000A28BB38BC3EAD4E08091F8049091F904E4
:10151000A091FA04B091FB048096A11DB11D8087B3
:101520009187A287B3872CAD820F911DA11DB11D9C
:1015300084839583A683B78328A539A5AC01BD0113
:10154000420F531F611D711D40835183628373835A
:101550008C8D9D8DB0E0A0E08096A11DB11D840F03
:10156000951FA61FB71F848B958BA68BB78B2091D9
:10157000F2043091F304820F931FA11DB11D8487E3
:101580009587A687B787DF91CF9108950E94570A64
:101590000C94760ACF92DF92EF92FF92C12CD12C5D
:1015A0007601A701960161E070E090E080E00E9482
:1015B0001C098FEFC81AD80AE80AF80A8FEFC81674
:1015C000D80681E0E806F10461F7FF90EF90DF9024
:1015D000CF9008952F923F924F925F926F927F9299
:1015E0008F929F92AF92BF92CF92DF92EF92FF9233
:1015F0000F931F93CF93DF931F92CDB7DEB78090E9
:10160000F2049090F304B12CA12C2090DD043090D2
:10161000DE042114310409F0DCC0C0900905D0902B
:101620000A05E0900B05F0900C05412C512C32017D
:101630008C0C9D1CAE1CBF1C8114910422E0A206E0
:10164000B10408F0B2C08C0124E030E040E050E08A
:10165000B6018FEC93E00E941C09F801608571854A
:1016600082859385A7019601235F3F4F4F4F5F4FC0
:101670000E946709A70196012F5E3F4F4F4F5F4FB2
:1016800061E070E0C8010C960E941C09A701960158
:101690002E5E3F4F4F4F5F4F61E070E0C8010D96E7
:1016A0000E941C09A70196012D5E3F4F4F4F5F4FCF
:1016B00061E070E0C8010F960E941C09A701960125
:1016C0002C5E3F4F4F4F5F4F61E070E0C8010E96B8
:1016D0000E941C09A70196012B5E3F4F4F4F5F4FA1
:1016E00061E070E0C80140960E941C09A7019601C4
:1016F0002A5E3F4F4F4F5F4F61E070E0C801419657
:101700000E941C09A7019601275F3F4F4F4F5F4F73
:10171000C301B2010E946709F801448255826682C2
:101720007782A70196012B5F3F4F4F4F5F4F60E0DD
:1017300070E0CB010E946709F801108211821282C9
:101740001382232809F456C0A30192012B5F3F4F57
:101750004F4F5F4FC701B6010E94670985EA898331
:10176000A70196012C5F3F4F4F4F5F4F61E070E044
:10177000CE0101960E941C098091DD049091DE0447
:1017800001969093DE048093DD04C092D504D0923C
:10179000D604E092D704F092D8048092CD049092BF
:1017A000CE04A092CF04B092D0040F90DF91CF91DD
:1017B0001F910F91FF90EF90DF90CF90BF90AF906F
:1017C0009F908F907F906F905F904F903F902F9061
:1017D0000895C090CD04D090CE04E090CF04F09056
:1017E000D0044090D5045090D6046090D7047090F7
:1017F000D8041ECFC092D104D092D204E092D30478
:10180000F092D404ABCF4F925F926F927F92AF92DF
:10181000BF92CF92DF92EF92FF920F931F93CF93DD
:10182000DF9300D000D01F92CDB7DEB7ADB6BEB605
:101830008091DD049091DE04892B09F47AC0009137
:10184000F2041091F3042801712C612CC090D5048E
:10185000D090D604E090D704F090D80419821A8270
:101860001B821C8285EA8D83A70196012C5F3F4F66
:101870004F4F5F4F61E070E0CE0105960E941C095A
:10188000B701A601475F5F4F6F4F7F4FCE010196B3
:101890000E94E90989819A81AB81BC810097A105E9
:1018A000B10509F45FC09C01AD012B5F3F4F4F4F65
:1018B0005F4F60E070E0CB010E94670989819A81E7
:1018C000AB81BC818093D5049093D604A093D704B8
:1018D000B093D8048DB79EB7801B910B0FB6F894C8
:1018E0009EBF0FBE8DBF0196FC0140E050E0BA01E3
:1018F000441555056605770508F445C0A70196010E
:10190000B8010E941C09C092CD04D092CE04E0928E
:10191000CF04F092D0048091DD049091DE04019711
:101920009093DE048093DD040FB6F894BEBE0FBE24
:10193000ADBE0FB6F894BEBE0FBEADBE0F900F90F9
:101940000F900F900F90DF91CF911F910F91FF900B
:10195000EF90DF90CF90BF90AF907F906F905F90AF
:101960004F9008951092D5041092D6041092D70487
:101970001092D8041092D1041092D2041092D30481
:101980001092D404A7CF11924F5F5F4F6F4F7F4FDC
:10199000AFCFAF92BF92CF92DF92EF92FF920F93B1
:1019A0001F93CF93DF93CDB7DEB7AD970FB6F89403
:1019B000DEBF0FBECDBF8C016A017B0184E1F8015F
:1019C00011928A95E9F71DA65E01F9E2AF0EB11CEE
:1019D000AB01960164E070E0C5010E947E096FECE6
:1019E00073E0C5010E949211892BE9F084ED93E028
:1019F0000E949F01BF92AF928FEC93E09F938F93D1
:101A000080EF93E09F938F93CE0101965C019F93AB
:101A10008F930E94A211C5010E949F010FB6F894F6
:101A2000DEBF0FBECDBFB701A6014B5F5F4F6F4F4B
:101A30007F4FC8010E94E909B701A601475F5F4FC8
:101A40006F4F7F4FC80104960E94E909B701A601B4
:101A5000435F5F4F6F4F7F4FC80108960E94E909AF
:101A6000A70196012F5E3F4F4F4F5F4F61E070E03F
:101A7000C8010C960E947E09A70196012E5E3F4F79
:101A80004F4F5F4F61E070E0C8010D960E947E09E4
:101A9000A70196012D5E3F4F4F4F5F4F61E070E011
:101AA000C8010F960E947E09A70196012C5E3F4F48
:101AB0004F4F5F4F61E070E0C8010E960E947E09B3
:101AC000A70196012B5E3F4F4F4F5F4F61E070E0E3
:101AD000C80140960E947E09A70196012A5E3F4FE9
:101AE0004F4F5F4F61E070E0C80141960E947E0950
:101AF000AD960FB6F894DEBF0FBECDBFDF91CF918C
:101B00001F910F91FF90EF90DF90CF90BF90AF901B
:101B10000895CF92DF92EF92FF92CF93DF93EC0183
:101B20006A017B01AB0196012B5F3F4F4F4F5F4F27
:101B3000688179818A819B810E946709A70196014A
:101B4000275F3F4F4F4F5F4F6C817D818E819F811B
:101B50000E946709A7019601235F3F4F4F4F5F4FD8
:101B6000688579858A859B850E946709A70196010A
:101B70002F5E3F4F4F4F5F4F61E070E0CE010C96FC
:101B80000E941C09A70196012E5E3F4F4F4F5F4FE9
:101B900061E070E0CE010D960E941C09A70196013C
:101BA0002D5E3F4F4F4F5F4F61E070E0CE010F96CB
:101BB0000E941C09A70196012C5E3F4F4F4F5F4FBB
:101BC00061E070E0CE010E960E941C09A70196010B
:101BD0002B5E3F4F4F4F5F4F61E070E0CE0140966C
:101BE0000E941C09A70196012A5E3F4F4F4F5F4F8D
:101BF00061E070E0CE014196DF91CF91FF90EF90D0
:101C0000DF90CF900C941C09CF92DF92EF92FF925D
:101C1000CF93DF931F92CDB7DEB7C0900505D0906C
:101C20000605E0900705F090080524E030E040E06C
:101C300050E0B60180E194E00E941C09B701A601C2
:101C40004B5E5F4F6F4F7F4F8091DD049091DE04BC
:101C50000E945309A70196012B5F3F4F4F4F5F4FE3
:101C600060E070E0CB010E946709A7019601275F41
:101C70003F4F4F4F5F4F60E070E0CB010E9467091C
:101C8000A7019601235F3F4F4F4F5F4F60E070E029
:101C9000CB010E946709A70196012F5E3F4F4F4F6E
:101CA0005F4F60E070E0CB010E94670985EA89839D
:101CB000A70196012C5F3F4F4F4F5F4F61E070E0EF
:101CC000CE0101960E941C090F90DF91CF91FF90E9
:101CD000EF90DF90CF9008958F929F92AF92BF9236
:101CE000CF92DF92EF92FF920F931F93CF93DF93E8
:101CF00000D01F92CDB7DEB789836A834B83809073
:101D00000D0590900E05A0900F05B0901005A3E072
:101D1000B0E0A90198010E946F116B017C01C80C11
:101D2000D91CEA1CFB1CA7019601275F3F4F4F4FB0
:101D30005F4F8091F8049091F904A091FA04B0915A
:101D4000FB04880D991DAA1DBB1D4C015D0169E0B6
:101D5000860E911CA11CB11C82169306A406B50622
:101D6000F0F061E070E0CE0101960E941C09A7012D
:101D70009601265F3F4F4F4F5F4F61E070E0CE010D
:101D800002960E941C09A7019601255F3F4F4F4F05
:101D90005F4F61E070E0CE0103960E941C090F9036
:101DA0000F900F90DF91CF911F910F91FF90EF90C7
:101DB000DF90CF90BF90AF909F908F900895CF927B
:101DC000DF92EF92FF920F931F93CF93DF93EC017B
:101DD000C0901105D0901205E0901305F090140505
:101DE00080919F01882399F024E030E040E050E0AA
:101DF000B6018FEC93E00E941C0910929F01C092E3
:101E0000D904D092DA04E092DB04F092DC04A7015A
:101E10009601235F3F4F4F4F5F4F688579858A85D5
:101E20009B850E946709A70196012F5E3F4F4F4F88
:101E30005F4F61E070E0CE010C960E941C09A70183
:101E400096012E5E3F4F4F4F5F4F61E070E0CE0135
:101E50000D960E941C09A70196012D5E3F4F4F4F22
:101E60005F4F61E070E0CE010F960E941C09A70150
:101E700096012C5E3F4F4F4F5F4F61E070E0CE0107
:101E80000E960E941C09A70196012B5E3F4F4F4FF3
:101E90005F4F61E070E0CE0140960E941C09A701EF
:101EA00096012A5E3F4F4F4F5F4F61E070E0CE01D9
:101EB00041960E941C09088519852A853B85488919
:101EC0006E858F850E946C0EDF91CF911F910F91CF
:101ED000FF90EF90DF90CF9008950F931F93CF93D3
:101EE000DF93CDB7DEB764970FB6F894DEBF0FBEB1
:101EF000CDBF8091DD049091DE04892BA1F040914B
:101F0000D1045091D2046091D3047091D404CE01D5
:101F100001960E94C90C89819A81AB81BC81892B71
:101F20008A2B8B2B59F464960FB6F894DEBF0FBE44
:101F3000CDBFDF91CF911F910F91089509851A852B
:101F40002B853C8549896F8588890E946C0E498163
:101F50005A816B817C81DBCF08950895CF92DF9207
:101F6000EF92FF920F931F93CF93DF931F92CDB702
:101F7000DEB7C0900105D0900205E0900305F09017
:101F8000040522E030E040E050E0B60185E194E055
:101F90000E941C09A70196012B5F3F4F4F4F5F4FD7
:101FA00003EA14E0F801668D778D80A191A10E946B
:101FB0006709B701A601475F5F4F6F4F7F4FF80179
:101FC00082A193A10E945309B701A601455F5F4F0B
:101FD0006F4F7F4FF80184A195A10E945309B7016B
:101FE000A601435F5F4F6F4F7F4FF80186A197A116
:101FF0000E94530985EA8983A70196012C5F3F4F10
:102000004F4F5F4F61E070E0CE0101960E941C09C6
:102010000F90DF91CF911F910F91FF90EF90DF9084
:10202000CF900895CF92DF92EF92FF92C09001057A
:10203000D0900205E0900305F0900405B701A601D9
:102040004B5F5F4F6F4F7F4F81EC94E00E94E90937
:10205000B701A601475F5F4F6F4F7F4F85EC94E05C
:102060000E94B809B701A601455F5F4F6F4F7F4FD0
:1020700087EC94E00E94B809B701A601435F5F4F67
:102080006F4F7F4F89EC94E0FF90EF90DF90CF90FF
:102090000C94B809CF92DF92EF92FF920F931F93A7
:1020A000CF93DF931F92CDB7DEB7C090FD04D090E1
:1020B000FE04E090FF04F0900005A701960164E0A3
:1020C00070E08AE194E00E941C09B701A601435E1A
:1020D0005F4F6F4F7F4F03EA14E0F801808D918DC1
:1020E0000E945309B701A601415E5F4F6F4F7F4FBA
:1020F000F801828D938D0E945309A70196012B5FF1
:102100003F4F4F4F5F4F6CE070E0C8010E941C09C9
:10211000A70196012F5E3F4F4F4F5F4F6CE070E07D
:102120008FEA94E00E941C0985EA8983A701960141
:102130002C5F3F4F4F4F5F4F61E070E0CE01019643
:102140000E941C090F90DF91CF911F910F91FF907A
:10215000EF90DF90CF900895CF92DF92EF92FF92B1
:10216000C090FD04D090FE04E090FF04F0900005C4
:10217000B701A601435E5F4F6F4F7F4F8BEB94E03B
:102180000E94B809B701A601415E5F4F6F4F7F4FB4
:102190008DEB94E00E94B8098091930481111BC0DB
:1021A000A70196012B5F3F4F4F4F5F4F6CE070E0F0
:1021B00083EA94E00E947E09A70196012F5E3F4FBB
:1021C0004F4F5F4F6CE070E08FEA94E00E947E0911
:1021D00081E080939304FF90EF90DF90CF9008957B
:1021E000CF93DF93CDB7DEB764970FB6F894DEBF19
:1021F0000FBECDBF0E94A50081113DC00E940A0103
:1022000061E084E994E00E948A072FEF81EE94E078
:10221000215080409040E1F700C0000066EA71E084
:1022200084E994E00E94B3082FEF89E698E12150F9
:1022300080409040E1F700C0000080918501893026
:10224000B1F4CE0101960E949F0180E291E00E94CC
:102250009F018FE093E00E949F018FEF99E628E1B4
:10226000815090402040E1F700C00000EECF25E013
:102270002A95F1F7E1CF90E080E064960FB6F894EC
:10228000DEBF0FBECDBFDF91CF910895A1E21A2E20
:10229000AA1BBB1BFD010DC0AA1FBB1FEE1FFF1F0A
:1022A000A217B307E407F50720F0A21BB30BE40B5A
:1022B000F50B661F771F881F991F1A9469F76095A1
:1022C0007095809590959B01AC01BD01CF0108955B
:1022D00069279627692778278727782708950E94F6
:1022E0007A11A59F900DB49F900DA49F800D911D14
:1022F00011240895A29FB001B39FC001A39F700D48
:10230000811D1124911DB29F700D811D1124911DFD
:102310000895FB01DC0102C001900D924150504034
:10232000D8F70895FB01DC018D910190801901100F
:10233000D9F3990B0895FB01DC0101900D92002067
:10234000E1F70895AEE0B0E0E8EAF1E10C94511451
:102350000D891E8986E08C831A8309838FEF9FE79E
:102360009E838D83AE01475E5F4F6F89788DCE016E
:1023700001960E94C5112F813885020F131FF801A5
:1023800010822E96E4E00C946D14ABE0B0E0EBEC20
:10239000F1E10C9443147C013B018A01FC0117829A
:1023A0001682838181FFC8C1CE0101965C01F701CD
:1023B0009381F30193FD859193FF81913F018823E0
:1023C00009F453C1853239F493FD859193FF8191CE
:1023D0003F01853229F4B70190E00E94B513E7CFA1
:1023E000912C212C312CFFE1F31538F08B3211F1B7
:1023F00090F4803209F1833229F137FC3CC020EDA2
:10240000280F2A3050F536FE20C08AE0989E200D15
:102410001124922E06C08D3291F0803371F76894AA
:1024200030F8F30193FD859193FF81913F01811174
:10243000DACF21C0689431F8689432F8F2CF68940A
:1024400033F8EFCF689434F8ECCFEAE02E9E200DFD
:102450001124222E689435F8E4CF8E3229F436FC0C
:1024600004C1689436F8DDCF8C3619F4689437F8D7
:10247000D8CF8836B1F2982F9F7D95549330E0F0F5
:102480008336A1F18337C1F1833509F063C0280198
:10249000F2E04F0E511CF801C080D180692D70E030
:1024A00036FC02C06FEF7FEFC6010E949F134C0104
:1024B000689437F882010AC00C5F1F4FFFE3F9836D
:1024C00088248394912C6501E89437F833FE2DC05D
:1024D000522C8114910471F5552009F468CFB7018D
:1024E00080E290E00E94B5135A94F6CFF801808103
:1024F00089830E5F1F4FE4CF2801F2E04F0E511C7D
:10250000F801C080D180692D70E036FC02C06FEF09
:102510007FEFC6010E94AA134C018201D5CFB701FB
:1025200080E290E00E94B5132A942814190409F05F
:10253000B0F7CECFF60137FC859137FE81916F0160
:10254000B70190E00E94B51351105A94F1E08F1A30
:102550009108BFCF843619F0893609F077C0F801A9
:1025600037FE6BC060817181828193810C5F1F4F48
:10257000F32DFF763F2E97FF09C0909580957095BB
:1025800061957F4F8F4F9F4F689437F82AE030E076
:10259000A5010E94E513C82ECA188C2C432C36FEC8
:1025A0000CC0E89440F8C91440F434FE05C032FC75
:1025B00003C0F32DFE7E4F2E892C44FE95C0FE01F4
:1025C000EC0DF11D8081803309F087C0242D297E18
:1025D000422E842D8870582E43FC95C040FE8FC03B
:1025E0009C2C821418F42C0C922C981844FE91C048
:1025F000B70180E390E00E94B51342FE09C088E76E
:1026000090E041FE02C088E590E0B7010E94B5135A
:10261000C91408F48AC0CA94D12C9FEFC91AD90AE8
:10262000CA0CDB1CF60182916F01B70190E00E9499
:10263000B513AC14BD04B1F74FCF60817181072E83
:10264000000C880B990B0E5F1F4F92CFD32CE89490
:10265000D4F82AE030E0853739F1232D297FD22EB6
:102660008F3601F148F48835A9F0F701868197810A
:102670002B96E2E10C945F14803749F08837A9F774
:10268000D4FE02C06894D2F820E130E00DC0689416
:10269000D4F8F6CF34FE03C0822F8660D82E20E116
:1026A00032E002C028E030E0F801D7FE0FC06081C0
:1026B0007181828193810C5F1F4FA5010E94E513F8
:1026C000C82ECA183D2CE89437F867CF6081718115
:1026D00090E080E00E5F1F4FF0CF42FC02C0839479
:1026E00078CF8394839475CF842D867809F471CF45
:1026F000F6CFB70180E290E00E94B5138394821474
:10270000C0F3512C73CF522C5818821408F46ECF9A
:10271000F8CF842D867809F47BCF8BE241FE80E2EE
:1027200047FC8DE2B70190E071CFB70180E390E004
:102730000E94B5139A946CCF8FEF9FEF99CFFC0155
:102740000590615070400110D8F7809590958E0FDC
:102750009F1F0895FC016150704001900110D8F74F
:10276000809590958E0F9F1F08950F931F93CF9381
:10277000DF93182F092FEB018B8181FD09C01FEF1B
:102780000FEF812F902FDF91CF911F910F9108951F
:1027900082FF14C02E813F818C819D8128173907CB
:1027A0003CF4E881F981CF010196998388831083F5
:1027B0008E819F8101969F838E83E3CFE885F98583
:1027C000812F0995892BA1F3DACFFA01AA272830A6
:1027D00051F1203181F1E8946F936E7F6E5F7F4FEE
:1027E0008F4F9F4FAF4FB1E03ED0B4E03CD0670F6A
:1027F000781F891F9A1FA11D680F791F8A1F911DBD
:10280000A11D6A0F711D811D911DA11D20D009F40C
:1028100068943F912AE0269F11243019305D31934E
:10282000DEF6CF010895462F4770405D4193B3E037
:102830000FD0C9F7F6CF462F4F70405D4A3318F0DE
:10284000495D31FD4052419302D0A9F7EACFB4E08F
:10285000A6959795879577956795BA95C9F7009747
:102860006105710508959B01AC010A2E06945795E8
:10287000479537952795BA95C9F7620F731F841F3F
:10288000951FA01D08952F923F924F925F926F92D5
:102890007F928F929F92AF92BF92CF92DF92EF92F0
:1028A000FF920F931F93CF93DF93CDB7DEB7CA1B71
:1028B000DB0B0FB6F894DEBF0FBECDBF09942A889C
:1028C000398848885F846E847D848C849B84AA8444
:1028D000B984C884DF80EE80FD800C811B81AA81D1
:1028E000B981CE0FD11D0FB6F894DEBF0FBECDBF9C
:0828F000ED010895F894FFCFFB
:1028F80000000000801A060001000000000000E847
:102908000300010000040101032400250023000145
:1029180000000000000000000000000000000000AF
:10292800000000000000000000000000000000009F
:10293800000000000000000000000000000000008F
:10294800000000000000000000000000000000007F
:10295800000000000000000000000000000000006F
:10296800000000000000000000000000000000005F
:102978000000000064098025080100000000000034
:102988000024F4008025000008801A0600050501CF
:1029980040145402010368656C6C6F00534E414B40
:1029A800452047414D45004C55434153204E415326
:1029B800430047414D45204E414D453A20000A50BD
:1029C8004C41594552204E414D453A2000535049FB
:1029D80020494E49545F4641494C203C25783E0ADF
:1029E8000049324320494E49545F4641494C203CF6
:1029F80025783E0A0053595354454D2E0A20464F18
:102A080053433A20256C750A0A0053504920434F16
:102A18004E462E0A20202020202020202020202062
:102A28002020202020206D61785F6C656E677468B7
:102A38003A2025640A202020202020202020202041
:102A48002020202020202074696D656F75743A203D
:102A580025640A202020202020202020202020203B
:102A68002020202020656E61626C653A2025640A6A
:102A7800202020202020202020202020202020204E
:102A880020206972713A2025640A20202020202005
:102A98002020202020202020202020206C73626607
:102AA800697273743A2025640A202020202020208F
:102AB80020202020202020202020206D7374723AAE
:102AC8002025640A202020202020202020202020CB
:102AD8002020202020207072657363616C65723A33
:102AE8002025640A202020202020202020202020AB
:102AF8002020202020206D6F64653A2025640A0A72
:102B08000049324320434F4E462E0A2020202020E1
:102B18002020202020202020202020202054574220
:102B2800525F56414C3A20256C750A2020202020FF
:102B380020202020202020202020202020667265B0
:102B48007175656E63793A20256C750A20202020FE
:102B580020202020202020202020202020207072CB
:102B6800657363616C65723A2025640A2020202011
:102B780020202020202020202020202020206D6FB1
:102B880064653A2025640A0A005350495F434F4E52
:102B9800465F4641494C0A005350495F4750494FE8
:102BA8005F4641494C0A004552525F5350495F43C2
:102BB800535F454E41424C455F4641494C0A004EE1
:102BC8004F4445004572726F722E2E2E203C496E7E
:102BD80076616C6964204865616465723E200A000C
:102BE8002E2E65787065637465642E2E3C25733EC1
:102BF8002E2E61637475616C2E2E3C25733E0A007F
:102C08005354434B00434F4D4D0053434F52000024
:00000001FF
