:100000000C9434000C9451000C9451000C94D506BF
:100010000C94DF060C94E9060C9451000C945100EA
:100020000C9451000C9451000C9451000C9451000C
:100030000C9451000C9451000C94F3060C94510054
:100040000C9451000C9479060C94B7060C94CB06D2
:100050000C94C1060C9451000C9451000C94510066
:100060000C94AD060C94510011241FBECFEFD8E0C4
:10007000DEBFCDBF13E0A0E0B1E0E2E6FAE202C0ED
:1000800005900D92A234B107D9F724E0A2E4B3E0C1
:1000900001C01D92A933B207E1F70E94A3110C948D
:1000A0002F150C940000CF93DF93C7ECD3E081E8C9
:1000B00090E09B8F8A8F89E990E0998F888F6DEA15
:1000C00071E083ED93E00E94501268EB71E0CE0185
:1000D0000E9450120E94C7101B8E1A8E198E188E05
:1000E0008CE0E3EDF3E0DF01982F1D929A95E9F79C
:1000F000DE011D928A95E9F70E94291183EC91E0B7
:100100000E941B01EFE1F3E03197F1F700C000001E
:1001100083ED93E00E941B018FE193E00197F1F7DB
:1001200000C000008FEC91E00E941B01AFE1B3E042
:100130001197F1F700C00000CE010E941B018BE473
:1001400092E0DF91CF910C941B01EF92FF921F93ED
:10015000CF93DF93CDB7DEB76E970FB6F894DEBFBF
:100160000FBECDBFCE0101967C018EE1F701119249
:100170008A95E9F70E94B901182F811121C0FFEF7C
:1001800021EE84E0F15020408040E1F700C0000003
:100190000E945104182F882301F11F928F938EED36
:1001A00091E09F938F93FF92EF920E945712C701A5
:1001B0000E941B010F900F900F900F900F900F90C7
:1001C000812F6E960FB6F894DEBF0FBECDBFDF91C4
:1001D000CF911F91FF90EF9008959FEFE1EEF4E033
:1001E0009150E040F040E1F700C000000E9453024F
:1001F000182F882329F01F928F9382EF91E0D1CF9F
:100200002FEF81EE94E0215080409040E1F700C054
:100210000000D6CF680F791F8617970711F408954D
:1002200000002091C00025FFFBCFFC012191CF01F0
:100230002093C600F1CFDC01FC0101900020E9F71A
:100240003197E81BF90B9D01281B390B2E173F072F
:1002500010F0089500002091C00025FFFBCF2D91E4
:100260002093C600E9CFDF92EF92FF920F931F9386
:10027000CF93DF93CDB7DEB764970FB6F894DEBFA8
:100280000FBECDBFD82E8E010F5F1F4F84E1F80146
:1002900011928A95E9F788E0E82EF12C66E072E089
:1002A000D7FC02C068E072E0C8010E943C12DD0C7D
:1002B000F1E0EF1AF10891F76BE472E0C8010E94D7
:1002C0003C12C8010E941B0164960FB6F894DEBF71
:1002D0000FBECDBFDF91CF911F910F91FF90EF9097
:1002E000DF900895CF92DF92EF92FF920F931F93CA
:1002F000009181011091820130E020E0C901B80134
:1003000043E0660F771F881F991F4A95D1F7C09069
:100310009201D0909301E0909401F09095016C0DC2
:100320007D1D8E1D9F1DA9019801E4E0220F331F42
:10033000441F551FEA95D1F70E94EA112150310957
:10034000C901B0E0A0E08093870190938801A09359
:100350008901B0938A011F910F91FF90EF90DF9078
:10036000CF900895519A8AB11AB88BB183608BB936
:1003700008950E94B2010E947201809187019091BC
:100380008801A0918901B0918A01492F5A2F6B2FC2
:1003900077274093C5008093C400E2ECF0E08081B1
:1003A0008F708083808188608083A0ECB0E08C9126
:1003B0008D7F8C93A1ECB0E088E18C938C918B7F46
:1003C0008C9380818660808380E00895CF93C09174
:1003D0000801C43009F44AC020F4C13059F08AE061
:1003E00043C0C03109F44BC0C034C9F78091B90093
:1003F00082603FC08091B9008C7F8093B90060918A
:1004000092017091930180919401909195012091B6
:1004100004013091050140910601509107010E94AD
:10042000EA11CA01B90160517109810991092C2FA2
:1004300030E0220F331F032E000C440B550B0E949B
:10044000EA11223008F422E02093B8008091B8002D
:1004500090E0B0E0A0E08093000190930101A093B0
:100460000201B093030180E0CF9108958091B9001B
:100470008D7F8093B9008091B9008160BECF80915B
:10048000B90082608093B9008091B9008E7FB5CFAA
:1004900080910901823018F08051823010F480E0A0
:1004A00008958AE0089587B18F7C87B988B1806309
:1004B00088B985E08A95F1F70000359B0CC0349B24
:1004C0000AC085E38A95F1F700000E94E6018111D8
:1004D00003C00C9448028DE00895880F682B80912A
:1004E000BC00846A8093BC008091BC0087FFFCCF75
:1004F0006093BB008091BC008F7D8093BC00809195
:10050000BC0084688093BC008091BC0087FFFCCF56
:100510008091B900887F0895ECEBF0E080818469D8
:1005200080838091B900887F08951F93CF93DF93D4
:10053000D82F162FCAE061E0113009F060E08D2F4E
:100540000E946D02883159F09091BC00946990939B
:10055000BC0095E09A95F1F70000C15061F7DF917A
:10056000CF911F9108958091B90008950F931F9323
:10057000CF93DF93EC01892B21F1842F8B0160E075
:100580000E9495020C0F1D1F94E88831B1F08091F4
:10059000B900DF91CF911F910F910C948C02809143
:1005A000BC0087FFFCCF89918093BB009093BC0077
:1005B0008091B900887F8832D9F7C017D10779F7C1
:1005C000E8CF81E0DF91CF911F910F9108950097BF
:1005D00039F0FC01680F791F94E8E617F70711F46A
:1005E00081E008958091BC0087FFFCCF81918093CA
:1005F000BB009093BC008091B900887F8832D9F706
:10060000ECCF0F931F93CF93DF93EC0181E0209702
:10061000A1F0842F8B0161E00E9495020C0F1D1F39
:1006200094E88831E9F08091B9008091BC00846938
:100630008093BC008091B900887FDF91CF911F919A
:100640000F9108958091BC0087FFFCCF8991809322
:10065000BB009093BC008091B900887F8832D9F7A5
:10066000C017D10779F7E1CF0097F1F0FC01680FCF
:10067000791F94E8E617F70741F49091B900987F45
:1006800081E0983291F480E008958091BC0087FF6A
:10069000FCCF81918093BB009093BC008091B90006
:1006A000887F8832D9F7E6CF81E008951CBC85B1F8
:1006B0008C6385B984B1837C84B9E0E0F1E0A589DD
:1006C000B6894C91218D81E090E0BC0102C0660F9B
:1006D000771F2A95E2F79B01209524232C93A38969
:1006E000B4892C91318D01C0880F3A95EAF7809535
:1006F00082238C931092470380E00895CF93DF9379
:10070000A0911301B0911401E0911501F09116012F
:10071000C0911701D0911801209119018091120107
:100720008330A1F1843009F45AC0823009F063C0EB
:1007300084B18C6284B9249885B18C6385B93C916D
:1007400081E090E0022E01C0880F0A94EAF7932F0F
:10075000982B9C939081892B808300C000001D9969
:1007600004C087E0DF91CF9108951B9BFACF1A9BBD
:10077000F8CF888190E002C0959587952A95E2F799
:1007800080FFEFCF00C0000080E0ECCF84B1886232
:1007900084B984B18B7E84B985B18C6385B93C9171
:1007A00081E090E0022E01C0880F0A94EAF7932FAF
:1007B000982B9C939081892B808300C000001D9B07
:1007C000D0CF1B9BCECF1A9BCCCF888190E002C0AC
:1007D000959587952A95E2F780FDD6CFC2CF249ACA
:1007E00084B1837D84B985B18C6385B900C0000074
:1007F0001C99CACFB6CF86E0B5CF80910E0181306B
:1008000039F038F1823039F0833009F186E008950B
:1008100081E090E002C080E091E02CB5277F990F45
:10082000990F990F922B9CBD9CB59B7F880F880FC9
:10083000892B8CBD80911001803161F160F484308E
:10084000A1F08830A9F0823009F791E00FC081E073
:10085000E3CF80E0DECF8034F9F08038F9F08032E9
:10086000A9F691E081E020E006C090E080E0FBCFB7
:1008700091E080E021E03CB53D7F880F832B8CBD6B
:100880008CB58E7F282B2CBD8DB58E7F982B9DBD72
:1008900080E0089590E0EDCF90E0E4CF90E081E03B
:1008A000E9CFCF938091470381110E9456030E94A4
:1008B000FD03C82F882331F08C2F0E946D118C2FDF
:1008C000CF9108950E947E03C82F8111F5CF8091AA
:1008D0001201825091E0823008F090E08CB52091B6
:1008E000110120FB87F98CBD8CB530910F0130FBD5
:1008F00085F98CBD8CB58F7E9295907F892B8CBDB0
:100900008CB580648CBD222309F0789481E08093BB
:100910004703D5CF0F931F93FC018F01081B190BC1
:1009200030E020E0041715072607370718F01F915D
:100930000F91089521912EBD0DB407FEFDCFEDCF8F
:10094000680F791F8617970709F408951EBC0DB428
:1009500007FEFDCF2EB5FC012193CF01F3CFE0912F
:100960001501F091160120813091190181E090E08C
:1009700001C0880F3A95EAF78095822380830000B2
:10098000E0911701F0911801808190E02091190108
:1009900002C0959587952A95E2F780FF04C08AE00A
:1009A00092E00E941B0180E008958AE191E0892B8A
:1009B000C9F080917F018823B9F00CB404FE04C013
:1009C0000E94AF04809346038091460381110DC0BD
:1009D00010927E0197E0909380019CB590689CBD39
:1009E0007894089585E0089586E00895E0911501D2
:1009F000F091160180819091190121E030E001C051
:100A0000220F9A95EAF7822B80830000E09117016C
:100A1000F0911801808190E02091190102C0959514
:100A200087952A95E2F780FD04C08AE092E00E9453
:100A30001B0180E008950F931F93CF93DF93182F2E
:100A4000092FEB018CB58F778CBD0CB404FC10C062
:100A5000E12FF02FCE0FDF1FEC17FD0791F40CB440
:100A600004FE29C0DF91CF911F910F910C94F604E1
:100A70000E94AF04882361F3DF91CF911F910F9102
:100A8000089581918EBD90E080E00DB407FCE4CF25
:100A900000009C012F5F3F4F40910A0150910B01D4
:100AA0004817590730F40CB404FC0E94F60482E0A5
:100AB000E3CFC901EACF80E0DFCF0097F9F04091A2
:100AC0000C0150910D016417750708F4AB014093B8
:100AD0007F0120911101222369F0BC018AE191E09C
:100AE0000E9433120E94D504882349F0873039F4DC
:100AF00080E00895BA010E941B05F6CF85E00895B5
:100B0000CF9390911201923069F4C82F0CB404FC79
:100B10000E945104CA3019F4CF910C94AF04CF91C4
:100B20000C94F60480E0CF9108950F931F93CF9318
:100B3000DF938C01EB018CB58F778CBD8AE00E942E
:100B40008005F801C00FD11F2FEFEC17FD0749F406
:100B50008BE00E94800580E0DF91CF911F910F9183
:100B600008950CB404FC2EBD90E080E00DB407FEA7
:100B700003C08EB58193E9CF0000AC014F5F5F4F9A
:100B800060910A0170910B016817790730F40CB479
:100B900004FC0E94F60482E0DFCFCA01E7CF809117
:100BA0009F01853051F50CB404FE04C00E94AF04CF
:100BB0008093450380914503811178C08AE191E0DB
:100BC000892B29F485E00E946D1185E0089510922B
:100BD00044031092430386E080939F018CB58068A4
:100BE0008CBD78940CB404FE06C08FEF8EBD88E0F7
:100BF0008093800108950E94910780919F01863023
:100C000009F053C02EB5222379F0809143039091CF
:100C10004403AC014F5F5F4F509344034093430341
:100C200080509F4FFC01228F20917F0180914303D0
:100C3000909144032817190689F080F08091800173
:100C4000823061F088E0809380010CB404FE02C021
:100C50008FEF8EBD0E94BC0788E008950E94CA07EE
:100C60000CB404FE04C00E94F60480934503109265
:100C700044031092430385E080939F0140917F01DC
:100C800050E06AE171E08091C5039091C6030E9433
:100C9000331284E680937F0189E0809380018AE1AA
:100CA00091E00E941B0189E0089587E00895009774
:100CB000F1F020910C0130910D016217730708F4D7
:100CC0009B0120937F0140911101442361F0909397
:100CD000C6038093C5030E94CF05882349F088305E
:100CE00039F480E00895B9010E949505F6CF85E0BA
:100CF00008951F920F920FB60F9211242F933F93D6
:100D00004F935F936F937F938F939F93AF93BF9313
:100D1000EF93FF932EB580914A0390914B03AC0162
:100D20004F5F5F4F50934B0340934A0380509F4F58
:100D3000FC01228F0E949107FF91EF91BF91AF912B
:100D40009F918F917F916F915F914F913F912F91E3
:100D50000F900FBE0F901F9018951F920F920FB615
:100D60000F9211240F900FBE0F901F9018951F9295
:100D70000F920FB60F9211240F900FBE0F901F907D
:100D800018951F920F920FB60F9211240F900FBE5D
:100D90000F901F9018951F920F920FB60F9211246B
:100DA0000F900FBE0F901F9018951F920F920FB6C5
:100DB0000F9211240F900FBE0F901F9018951F9245
:100DC0000F920FB60F9211240F900FBE0F901F902D
:100DD00018951F920F920FB60F9211240F900FBE0D
:100DE0000F901F9018951F920F920FB60F9211241B
:100DF0002F933F934F935F936F937F938F939F9323
:100E0000AF93BF93EF93FF93809148039091490371
:100E10009C012F5F3F4F3093490320934803449731
:100E200009F50E94CA07F89482E292E00E941B0131
:100E30008AE191E00E941B018BE492E00E941B0179
:100E400082E08093800110924B0310924A03EAE102
:100E5000F1E084E6DF011D928A95E9F710924903DB
:100E600010924803FF91EF91BF91AF919F918F91A5
:100E70007F916F915F914F913F912F910F900FBE96
:100E80000F901F9018959C01DB010E9419129B0185
:100E9000AC01211531054105510529F483E080930A
:100EA000910180E008956091920170919301809189
:100EB0009401909195010E94EA1121153105410597
:100EC000510561F3DA01C9010197A109B1098F3F09
:100ED0009105A105B10531F028F083E080939101DF
:100EE0008FEF08951092910108958091640090E031
:100EF0000E94330160918B0170918C0180918D0172
:100F000090918E010E944307982F809390018091C9
:100F10009101811105C097BD14BC84B5826084BD68
:100F2000089580918B0190918C0180349105F1F0AE
:100F300060F48130910599F00897A9F016BC809172
:100F40006E00826080936E000895811521E0920703
:100F500081F08115944091F785B5856002C085B513
:100F6000816085BDEBCF85B58260FBCF85B58360A1
:100F7000F8CF85B58460F5CF9FB7F894EEE6F0E042
:100F800080818D7F8083A99A16BC80818260808356
:100F90009FBF089585B5887F85BDEEE6F0E080812E
:100FA0008D7F808316BC0895FC0181E083831482C9
:100FB000858316821782108681871286838714861E
:100FC0001282118287E280830895109251039C015E
:100FD0002150310923303105C0F42C553E4FF90121
:100FE00020812C60982F907F922B90934D039B7FB4
:100FF00090934E038295807F822B80934F038B7F4B
:10100000809350038DE493E0089520E0EACF0F939E
:101010001F93CF93DF93EC0161110E94D4070881E5
:1010200010E02A8540E1249F900111248B8548E03F
:10103000849FC0011124282B392B20628C8544E029
:10104000849FC0011124822B932B0E94E507A801E5
:1010500064E070E00E94B6028FE891E00197F1F73A
:1010600000C00000088110E02A8590E1299F9001CE
:1010700011248B8548E0849FC0011124282B392B33
:1010800020628C8544E0849FC0011124822B932B25
:101090000E94E507A80164E070E00E94B6028FE8B4
:1010A00091E00197F1F700C00000088110E081E0B5
:1010B00090E00E94E507A80164E070E00E94B6029B
:1010C0008FE39FE10197F1F700C00000088110E075
:1010D0008B8190E0880F991F2C812460822B0E94C5
:1010E000E507A80164E070E00E94B6028FE891E095
:1010F0000197F1F700C00000088110E08D8124E025
:10110000829FC00111242E8130E0220F331F822BD9
:10111000932B2F812860822B0E94E507A80164E0B1
:1011200070E00E94B6028FE891E00197F1F700C0ED
:101130000000088110E0888528E0829FC00111240A
:10114000298544E0249F90011124822B932B8061F8
:101150000E94E507A80164E070E00E94B6028FE8F3
:1011600091E00197F1F700C00000C881D0E082E073
:1011700090E00E94E507AE0164E070E00E94B602D4
:101180008FE39FE10197F1F700C00000DF91CF915D
:101190001F910F910895FC0122819181992379F08B
:1011A000913091F081E0820F233108F080E082835A
:1011B0009F5F211190E0918380914C03089581E01D
:1011C000820F80934C03EECF85E1FACF81508330BC
:1011D00038F4E82FF0E0EF55FE4F8081860F089538
:1011E00080E0FCCFFC016281643130F481E0860F45
:1011F000828381810C94E6088181833030F48F5F93
:10120000818381E0828360E0F4CF80E0F9CFFC014C
:10121000892B89F0862F807F90E1699FB00111248E
:10122000982F9D60908389608183862F8D60828353
:101230006960638314820895CF93C62F806890E01D
:101240000E94E5074C2F50E064E070E00E94B60277
:101250008FE891E00197F1F700C00000CF91089569
:101260009F92AF92BF92CF92DF92EF92FF920F9335
:101270001F93CF93DF9300D000D01F92CDB7DEB77E
:1012800061157105A9F08B017C016B0185E0982E39
:10129000CE0101965C01F80101900020E9F7319739
:1012A000E01BF10BC601801B910B8E179F0788F086
:1012B0000F900F900F900F900F90DF91CF911F9193
:1012C0000F91FF90EF90DF90CF90BF90AF909F90E5
:1012D0000895F70183858823F1F0C7010E94F20881
:1012E000F70160810E941C09F501892D11928A95F0
:1012F000E9F7F60161916F01C5010E940709F70145
:10130000408150E064E070E0C5010E94B602F0EF59
:10131000FA95F1F7C0CFC7010E94CB08E1CFDC01FD
:10132000CB01B42BE2E5F3E0B083A1839283638326
:101330000895EF92FF920F931F93CF93DF938C0149
:101340007B01CA01B90120918001283039F1209137
:101350008001273019F1E2E5F3E024E6DF011D9278
:101360002A95E9F742E00E948F09E701C136D105CD
:1013700010F0C0E6D0E0AE01B80186E593E00E942F
:101380003312BE016C5F7F4F82E593E0DF91CF9116
:101390001F910F91FF90EF900C945D050000D3CF4B
:1013A000CF93DF9300D0CDB7DEB799838A839A01BC
:1013B000AB0162E070E0CE0101960E9499090F90A6
:1013C0000F90DF91CF910895CF93DF9300D000D09D
:1013D000CDB7DEB799838A837B836C8364E070E04A
:1013E000CE0101960E9499090F900F900F900F90D7
:1013F000DF91CF9108950F931F93CF93DF938C01CB
:10140000EB01CA01B90120918001283061F12091DE
:101410008001273041F1E2E5F3E024E6DF011D928F
:101420002A95E9F743E00E948F09F8940E94AF04DF
:1014300044E050E060E070E082E593E00E948A04BE
:10144000C136D10510F0C4E6D0E0AE01B80182E5A6
:1014500093E00E943312BE01C801DF91CF911F912A
:101460000F910C9457060000CECFFF920F931F935D
:10147000CF93DF9300D0CDB7DEB78C01F090110190
:1014800010921101F894FC01118210821A821982C3
:101490009A01AB0162E070E0CE0101960E94FB0967
:1014A00089819A81982789279827F80191838083D9
:1014B000FF2021F081E08093110178940F900F902C
:1014C000DF91CF911F910F91FF900895FF920F939D
:1014D0001F93CF93DF9300D000D0CDB7DEB78C0140
:1014E000F090110110921101F894FC011082118208
:1014F0001282138219821A821B821C829A01AB010A
:1015000064E070E0CE0101960E94FB098830D9F0BA
:1015100069817A818B819C810E941212F80160831B
:10152000718382839383F11013C00F900F900F90FB
:101530000F90DF91CF911F910F91FF900895F5E0EB
:10154000FA95F1F70000809180018930C1F7E0CF72
:1015500081E0809311017894E8CFCF930E94AF048B
:1015600085E08EBD0DB407FEFDCF1EBC0DB407FE99
:10157000FDCFCEB50E94F6048C2FCF910895CF9366
:10158000982F9F7379F4C82F0E94AF0481E08EBD1D
:101590000DB407FEFDCFCEBD0DB407FEFDCFCF913C
:1015A0000C94F604CF910895E7ECF3E081E290E02B
:1015B000958F848F8FE090E091A780A787E184AF1B
:1015C00087E190E0909317048093160489E092E1FC
:1015D000A0E0B0E080931C0490931D04A0931E042F
:1015E000B0931F040895CF93DF93E1E2F4E080E22B
:1015F00090E0A0E0B0E0808B918BA28BB38BC7EC26
:10160000D3E080911C0490911D04A0911E04B09120
:101610001F048096A11DB11D80879187A287B38783
:101620002CAD820F911DA11DB11D84839583A683CE
:10163000B78328A539A5AC01BD01420F531F611D19
:10164000711D40835183628373838C8D9D8DB0E0C7
:10165000A0E08096A11DB11D840F951FA61FB71F86
:10166000848B958BA68BB78B209116043091170431
:10167000820F931FA11DB11D84879587A687B78709
:10168000DF91CF9108950E94D40A0C94F30ACF926F
:10169000DF92EF92FF92C12CD12C7601A701960127
:1016A00061E070E090E080E00E9499098FEFC81A35
:1016B000D80AE80AF80A8FEFC816D80681E0E806CB
:1016C000F10461F7FF90EF90DF90CF9008952F9293
:1016D0003F924F925F926F927F928F929F92AF92C2
:1016E000BF92CF92DF92EF92FF920F931F93CF930F
:1016F000DF931F92CDB7DEB7809016049090170449
:10170000B12CA12C2090010430900204211431044A
:1017100009F0DCC0C0902D04D0902E04E0902F047E
:10172000F0903004412C512C32018C0C9D1CAE1CCD
:10173000BF1C8114910422E0A206B10408F0B2C0DB
:101740008C0124E030E040E050E0B6018CE292E011
:101750000E949909F8016085718582859385A701AA
:101760009601235F3F4F4F4F5F4F0E94E409A7014F
:1017700096012F5E3F4F4F4F5F4F61E070E0C80111
:101780000C960E949909A70196012E5E3F4F4F4F7C
:101790005F4F61E070E0C8010D960E949909A701B2
:1017A00096012D5E3F4F4F4F5F4F61E070E0C801E3
:1017B0000F960E949909A70196012C5E3F4F4F4F4B
:1017C0005F4F61E070E0C8010E960E949909A70181
:1017D00096012B5E3F4F4F4F5F4F61E070E0C801B5
:1017E00040960E949909A70196012A5E3F4F4F4FEC
:1017F0005F4F61E070E0C80141960E949909A7011E
:101800009601275F3F4F4F4F5F4FC301B2010E94C8
:10181000E409F8014482558266827782A701960125
:101820002B5F3F4F4F4F5F4F60E070E0CB010E9456
:10183000E409F8011082118212821382232809F42C
:1018400056C0A30192012B5F3F4F4F4F5F4FC7011F
:10185000B6010E94E40985EA8983A70196012C5FFD
:101860003F4F4F4F5F4F61E070E0CE0101960E9405
:1018700099098091010490910204019690930204C9
:1018800080930104C092F903D092FA03E092FB0323
:10189000F092FC038092F1039092F203A092F30382
:1018A000B092F4030F90DF91CF911F910F91FF90B1
:1018B000EF90DF90CF90BF90AF909F908F907F90F0
:1018C0006F905F904F903F902F900895C090F103DC
:1018D000D090F203E090F303F090F4034090F9030A
:1018E0005090FA036090FB037090FC031ECFC092EF
:1018F000F503D092F603E092F703F092F803ABCF32
:101900004F925F926F927F92AF92BF92CF92DF928F
:10191000EF92FF920F931F93CF93DF9300D000D0ED
:101920001F92CDB7DEB7ADB6BEB6809101049091DF
:101930000204892B09F47AC000911604109117044F
:101940002801712C612CC090F903D090FA03E0902B
:10195000FB03F090FC0319821A821B821C8285EA29
:101960008D83A70196012C5F3F4F4F4F5F4F61E082
:1019700070E0CE0105960E949909B701A601475F64
:101980005F4F6F4F7F4FCE0101960E94660A89819B
:101990009A81AB81BC810097A105B10509F45FC0B4
:1019A0009C01AD012B5F3F4F4F4F5F4F60E070E0F8
:1019B000CB010E94E40989819A81AB81BC8180932B
:1019C000F9039093FA03A093FB03B093FC038DB744
:1019D0009EB7801B910B0FB6F8949EBF0FBE8DBFB4
:1019E0000196FC0140E050E0BA014415550566053A
:1019F000770508F445C0A7019601B8010E9499092E
:101A0000C092F103D092F203E092F303F092F40358
:101A100080910104909102040197909302048093B5
:101A200001040FB6F894BEBE0FBEADBE0FB6F8945B
:101A3000BEBE0FBEADBE0F900F900F900F900F90D7
:101A4000DF91CF911F910F91FF90EF90DF90CF909A
:101A5000BF90AF907F906F905F904F9008951092DD
:101A6000F9031092FA031092FB031092FC031092F8
:101A7000F5031092F6031092F7031092F803A7CF24
:101A800011924F5F5F4F6F4F7F4FAFCFAF92BF92BB
:101A9000CF92DF92EF92FF920F931F93CF93DF933A
:101AA000CDB7DEB7AD970FB6F894DEBF0FBECDBF92
:101AB0008C016A017B0184E1F80111928A95E9F7B2
:101AC0001DA65E01F9E2AF0EB11CAB01960164E008
:101AD00070E0C5010E94FB096CE272E0C5010E9442
:101AE0004712892BE9F081E392E00E941B01BF922B
:101AF000AF928CE292E09F938F938DE492E09F935C
:101B00008F93CE0101965C019F938F930E94571291
:101B1000C5010E941B010FB6F894DEBF0FBECDBFFA
:101B2000B701A6014B5F5F4F6F4F7F4FC8010E9407
:101B3000660AB701A601475F5F4F6F4F7F4FC8012D
:101B400004960E94660AB701A601435F5F4F6F4F7C
:101B50007F4FC80108960E94660AA70196012F5E72
:101B60003F4F4F4F5F4F61E070E0C8010C960E94FD
:101B7000FB09A70196012E5E3F4F4F4F5F4F61E07B
:101B800070E0C8010D960E94FB09A70196012D5E29
:101B90003F4F4F4F5F4F61E070E0C8010F960E94CA
:101BA000FB09A70196012C5E3F4F4F4F5F4F61E04D
:101BB00070E0C8010E960E94FB09A70196012B5EFA
:101BC0003F4F4F4F5F4F61E070E0C80140960E9469
:101BD000FB09A70196012A5E3F4F4F4F5F4F61E01F
:101BE00070E0C80141960E94FB09AD960FB6F894CB
:101BF000DEBF0FBECDBFDF91CF911F910F91FF9040
:101C0000EF90DF90CF90BF90AF900895CF92DF928A
:101C1000EF92FF92CF93DF93EC016A017B01AB015E
:101C200096012B5F3F4F4F4F5F4F688179818A81CB
:101C30009B810E94E409A7019601275F3F4F4F4F08
:101C40005F4F6C817D818E819F810E94E409A70195
:101C50009601235F3F4F4F4F5F4F688579858A8597
:101C60009B850E94E409A70196012F5E3F4F4F4FCD
:101C70005F4F61E070E0CE010C960E949909A701C8
:101C800096012E5E3F4F4F4F5F4F61E070E0CE01F7
:101C90000D960E949909A70196012D5E3F4F4F4F67
:101CA0005F4F61E070E0CE010F960E949909A70195
:101CB00096012C5E3F4F4F4F5F4F61E070E0CE01C9
:101CC0000E960E949909A70196012B5E3F4F4F4F38
:101CD0005F4F61E070E0CE0140960E949909A70134
:101CE00096012A5E3F4F4F4F5F4F61E070E0CE019B
:101CF0004196DF91CF91FF90EF90DF90CF900C94C1
:101D00009909CF92DF92EF92FF92CF93DF931F92C8
:101D1000CDB7DEB7C0902904D0902A04E0902B0400
:101D2000F0902C0424E030E040E050E0B6018DE675
:101D300092E00E949909B701A6014B5E5F4F6F4F79
:101D40007F4F80910104909102040E94D009A70165
:101D500096012B5F3F4F4F4F5F4F60E070E0CB012C
:101D60000E94E409A7019601275F3F4F4F4F5F4F45
:101D700060E070E0CB010E94E409A7019601235FB7
:101D80003F4F4F4F5F4F60E070E0CB010E94E4098E
:101D9000A70196012F5E3F4F4F4F5F4F60E070E00D
:101DA000CB010E94E40985EA8983A70196012C5F93
:101DB0003F4F4F4F5F4F61E070E0CE0101960E94B0
:101DC00099090F90DF91CF91FF90EF90DF90CF9026
:101DD00008958F929F92AF92BF92CF92DF92EF922F
:101DE000FF920F931F93CF93DF9300D01F92CDB735
:101DF000DEB789836A834B838090310490903204EC
:101E0000A0903304B0903404A3E0B0E0A90198019D
:101E10000E9428126B017C01C80CD91CEA1CFB1C17
:101E2000A7019601275F3F4F4F4F5F4F80911C04E2
:101E300090911D04A0911E04B0911F04880D991D5E
:101E4000AA1DBB1D4C015D0169E0860E911CA11C01
:101E5000B11C82169306A406B506F0F061E070E0AE
:101E6000CE0101960E949909A7019601265F3F4F76
:101E70004F4F5F4F61E070E0CE0102960E949909DA
:101E8000A7019601255F3F4F4F4F5F4F61E070E024
:101E9000CE0103960E9499090F900F900F90DF9149
:101EA000CF911F910F91FF90EF90DF90CF90BF9057
:101EB000AF909F908F900895CF92DF92EF92FF9214
:101EC0000F931F93CF93DF93EC01C0903504D09014
:101ED0003604E0903704F09038048091A001882304
:101EE00099F024E030E040E050E0B6018CE292E06E
:101EF0000E9499091092A001C092FD03D092FE03A6
:101F0000E092FF03F0920004A7019601235F3F4F88
:101F10004F4F5F4F688579858A859B850E94E409CC
:101F2000A70196012F5E3F4F4F4F5F4F61E070E07A
:101F3000CE010C960E949909A70196012E5E3F4F93
:101F40004F4F5F4F61E070E0CE010D960E949909FE
:101F5000A70196012D5E3F4F4F4F5F4F61E070E04C
:101F6000CE010F960E949909A70196012C5E3F4F62
:101F70004F4F5F4F61E070E0CE010E960E949909CD
:101F8000A70196012B5E3F4F4F4F5F4F61E070E01E
:101F9000CE0140960E949909A70196012A5E3F4F03
:101FA0004F4F5F4F61E070E0CE0141960E9499096A
:101FB000088519852A853B8548896E858F850E940D
:101FC000E90EDF91CF911F910F91FF90EF90DF907D
:101FD000CF9008950F931F93CF93DF93CDB7DEB7C4
:101FE00064970FB6F894DEBF0FBECDBF8091010499
:101FF00090910204892BA1F04091F5035091F603D2
:102000006091F7037091F803CE0101960E94460D8E
:1020100089819A81AB81BC81892B8A2B8B2B59F4C6
:1020200064960FB6F894DEBF0FBECDBFDF91CF919F
:102030001F910F91089509851A852B853C85498943
:102040006F8588890E94E90E49815A816B817C8164
:10205000DBCF08950895CF92DF92EF92FF920F9316
:102060001F93CF93DF931F92CDB7DEB7C0902504A7
:10207000D0902604E0902704F090280422E030E07D
:1020800040E050E0B60182E792E00E949909A70182
:1020900096012B5F3F4F4F4F5F4F07EC13E0F80166
:1020A000668D778D80A191A10E94E409B701A601F8
:1020B000475F5F4F6F4F7F4FF80182A193A10E944E
:1020C000D009B701A601455F5F4F6F4F7F4FF80101
:1020D00084A195A10E94D009B701A601435F5F4F7B
:1020E0006F4F7F4FF80186A197A10E94D00985EA22
:1020F0008983A70196012C5F3F4F4F4F5F4F61E0EF
:1021000070E0CE0101960E9499090F90DF91CF9166
:102110001F910F91FF90EF90DF90CF900895CF9295
:10212000DF92EF92FF92C0902504D0902604E090B9
:102130002704F0902804B701A6014B5F5F4F6F4F53
:102140007F4F85EE93E00E94660AB701A601475FC4
:102150005F4F6F4F7F4F89EE93E00E94350AB701C2
:10216000A601455F5F4F6F4F7F4F8BEE93E00E945C
:10217000350AB701A601435F5F4F6F4F7F4F8DEE6A
:1021800093E0FF90EF90DF90CF900C94350ACF92C0
:10219000DF92EF92FF920F931F93CF93DF931F92E3
:1021A000CDB7DEB7C0902104D0902204E090230484
:1021B000F0902404A701960164E070E087E792E0C4
:1021C0000E949909B701A601435E5F4F6F4F7F4F91
:1021D00007EC13E0F801808D918D0E94D009B701C2
:1021E000A601415E5F4F6F4F7F4FF801828D938D47
:1021F0000E94D009A70196012B5F3F4F4F4F5F4FC1
:102200006CE070E0C8010E949909A70196012F5E59
:102210003F4F4F4F5F4F6CE070E083ED93E00E94C3
:10222000990985EA8983A70196012C5F3F4F4F4F9B
:102230005F4F61E070E0CE0101960E9499090F9016
:10224000DF91CF911F910F91FF90EF90DF90CF9092
:102250000895CF92DF92EF92FF92C0902104D09028
:102260002204E0902304F0902404B701A601435E09
:102270005F4F6F4F7F4F8FED93E00E94350AB7019C
:10228000A601415E5F4F6F4F7F4F81EE93E00E944A
:10229000350A8091B70381111BC0A70196012B5FFE
:1022A0003F4F4F4F5F4F6CE070E087EC93E00E9430
:1022B000FB09A70196012F5E3F4F4F4F5F4F6CE028
:1022C00070E083ED93E00E94FB0981E08093B70307
:1022D000FF90EF90DF90CF90089581508B3080F584
:1022E000E82FF0E0EA58FE4E0C940C128111851193
:1022F00088118B118E11A011941197119A119D11B3
:1023000091118CE792E00C941B018BE892E0FBCFDB
:1023100088E992E0F8CF8BEA92E0F5CF80EC92E08A
:10232000F2CF82ED92E0EFCF84EE92E0ECCF88EF37
:1023300092E0E9CF8CE093E0E6CF8EE193E0E3CF4B
:1023400085E393E0E0CFCF93DF93CDB7DEB764971B
:102350000FB6F894DEBF0FBECDBF0E94A50081115D
:102360002EC0569A0E94750761E088EB93E00E94A8
:1023700007082FEF81EE94E0215080409040E1F774
:1023800000C0000067EA71E088EB93E00E9430092A
:102390002FEF89E698E1215080409040E1F700C09E
:1023A0000000CE0101960E941B012FEF83ED90E308
:1023B000215080409040E1F700C00000F6CF90E04F
:1023C00080E064960FB6F894DEBF0FBECDBFDF91FC
:1023D000CF910895A1E21A2EAA1BBB1BFD010DC0CF
:1023E000AA1FBB1FEE1FFF1FA217B307E407F507C5
:1023F00020F0A21BB30BE40BF50B661F771F881FA1
:10240000991F1A9469F760957095809590959B0136
:10241000AC01BD01CF010895EE0FFF1F0590F491AF
:10242000E02D099469279627692778278727782739
:102430000895A29FB001B39FC001A39F700D811D9D
:102440001124911DB29F700D811D1124911D0895BD
:102450000E941912A59F900DB49F900DA49F800D0E
:10246000911D11240895FB01DC0102C001900D9221
:1024700041505040D8F70895FB01DC010D90002039
:10248000E9F7119701900D920020E1F70895FB0103
:10249000DC018D91019080190110D9F3990B0895F9
:1024A000FB01DC0101900D920020E1F70895AEE000
:1024B000B0E0EDE5F2E10C9406150D891E8986E089
:1024C0008C831A8309838FEF9FE79E838D83AE01F0
:1024D000475E5F4F6F89788DCE0101960E947A1218
:1024E0002F813885020F131FF80110822E96E4E029
:1024F0000C942215ABE0B0E0E0E8F2E10C94F814A3
:102500007C013B018A01FC0117821682838181FFD5
:10251000C8C1CE0101965C01F7019381F30193FDDF
:10252000859193FF81913F01882309F453C185323E
:1025300039F493FD859193FF81913F01853229F410
:10254000B70190E00E946A14E7CF912C212C312C26
:10255000FFE1F31538F08B3211F190F4803209F17C
:10256000833229F137FC3CC020ED280F2A3050F58A
:1025700036FE20C08AE0989E200D1124922E06C0BF
:102580008D3291F0803371F7689430F8F30193FD48
:10259000859193FF81913F018111DACF21C0689429
:1025A00031F8689432F8F2CF689433F8EFCF68943A
:1025B00034F8ECCFEAE02E9E200D1124222E6894F0
:1025C00035F8E4CF8E3229F436FC04C1689436F82D
:1025D000DDCF8C3619F4689437F8D8CF8836B1F24D
:1025E000982F9F7D95549330E0F08336A1F1833787
:1025F000C1F1833509F063C02801F2E04F0E511C90
:10260000F801C080D180692D70E036FC02C06FEF08
:102610007FEFC6010E9454144C01689437F8820180
:102620000AC00C5F1F4FFFE3F98388248394912C29
:102630006501E89437F833FE2DC0522C81149104C3
:1026400071F5552009F468CFB70180E290E00E944F
:102650006A145A94F6CFF801808189830E5F1F4F68
:10266000E4CF2801F2E04F0E511CF801C080D18068
:10267000692D70E036FC02C06FEF7FEFC6010E944B
:102680005F144C018201D5CFB70180E290E00E9437
:102690006A142A942814190409F0B0F7CECFF60171
:1026A00037FC859137FE81916F01B70190E00E9460
:1026B0006A1451105A94F1E08F1A9108BFCF8436F2
:1026C00019F0893609F077C0F80137FE6BC06081D8
:1026D0007181828193810C5F1F4FF32DFF763F2E16
:1026E00097FF09C090958095709561957F4F8F4FAA
:1026F0009F4F689437F82AE030E0A5010E949A14B1
:10270000C82ECA188C2C432C36FE0CC0E89440F816
:10271000C91440F434FE05C032FC03C0F32DFE7E24
:102720004F2E892C44FE95C0FE01EC0DF11D8081D9
:10273000803309F087C0242D297E422E842D887095
:10274000582E43FC95C040FE8FC09C2C821418F478
:102750002C0C922C981844FE91C0B70180E390E0B5
:102760000E946A1442FE09C088E790E041FE02C060
:1027700088E590E0B7010E946A14C91408F48AC081
:10278000CA94D12C9FEFC91AD90ACA0CDB1CF601D6
:1027900082916F01B70190E00E946A14AC14BD04ED
:1027A000B1F74FCF60817181072E000C880B990B18
:1027B0000E5F1F4F92CFD32CE894D4F82AE030E07C
:1027C000853739F1232D297FD22E8F3601F148F438
:1027D0008835A9F0F701868197812B96E2E10C9468
:1027E0001415803749F08837A9F7D4FE02C06894E1
:1027F000D2F820E130E00DC06894D4F8F6CF34FE72
:1028000003C0822F8660D82E20E132E002C028E08B
:1028100030E0F801D7FE0FC0608171818281938121
:102820000C5F1F4FA5010E949A14C82ECA183D2C98
:10283000E89437F867CF6081718190E080E00E5FA7
:102840001F4FF0CF42FC02C0839478CF83948394CF
:1028500075CF842D867809F471CFF6CFB70180E269
:1028600090E00E946A1483948214C0F3512C73CFB9
:10287000522C5818821408F46ECFF8CF842D867825
:1028800009F47BCF8BE241FE80E247FC8DE2B70189
:1028900090E071CFB70180E390E00E946A149A94AF
:1028A0006CCF8FEF9FEF99CFFC0105906150704086
:1028B0000110D8F7809590958E0F9F1F0895FC0109
:1028C0006150704001900110D8F7809590958E0F5F
:1028D0009F1F08950F931F93CF93DF93182F092FF6
:1028E000EB018B8181FD09C01FEF0FEF812F902F2E
:1028F000DF91CF911F910F91089582FF14C02E8117
:102900003F818C819D81281739073CF4E881F9814A
:10291000CF0101969983888310838E819F810196D0
:102920009F838E83E3CFE885F985812F0995892BD5
:10293000A1F3DACFFA01AA27283051F1203181F131
:10294000E8946F936E7F6E5F7F4F8F4F9F4FAF4FB7
:10295000B1E03ED0B4E03CD0670F781F891F9A1FCA
:10296000A11D680F791F8A1F911DA11D6A0F711D7E
:10297000811D911DA11D20D009F468943F912AE08A
:10298000269F11243019305D3193DEF6CF01089572
:10299000462F4770405D4193B3E00FD0C9F7F6CFA3
:1029A000462F4F70405D4A3318F0495D31FD40526B
:1029B000419302D0A9F7EACFB4E0A6959795879501
:1029C00077956795BA95C9F70097610571050895E0
:1029D0009B01AC010A2E069457954795379527958C
:1029E000BA95C9F7620F731F841F951FA01D089524
:1029F0002F923F924F925F926F927F928F929F920F
:102A0000AF92BF92CF92DF92EF92FF920F931F93FC
:102A1000CF93DF93CDB7DEB7CA1BDB0B0FB6F894AD
:102A2000DEBF0FBECDBF09942A88398848885F84ED
:102A30006E847D848C849B84AA84B984C884DF805E
:102A4000EE80FD800C811B81AA81B981CE0FD11D42
:102A50000FB6F894DEBF0FBECDBFED010895F89418
:022A6000FFCFA6
:102A620000000000801A06000100E80300010000D7
:102A720002010424002500230001000000000000E0
:102A82000000000000000000000000000000000044
:102A92000000000000000000000000000000000034
:102AA2000000000000000000000000000000000024
:102AB2000000000000000000000000000000000014
:102AC2000000000000000000000000000000000004
:102AD2000000000000000000000000000000006490
:102AE20009802508010000000000000004640000C5
:102AF20000000024F4008025000008801A0600056A
:102B02000140145402010368656C6C6F00534E411E
:102B12004B452047414D45004C55434153204E41C2
:102B220053430047414D45204E414D453A20000A4E
:102B3200504C41594552204E414D453A2000535088
:102B42004920494E49545F4641494C203C25783E34
:102B52000A0049324320494E49545F4641494C20BC
:102B62003C25783E0A00310030004552525F5350F6
:102B7200495F43535F454E41424C455F4641494C94
:102B82000A00627566666572203A20004E4F44451F
:102B9200004572726F722E2E2E203C496E76616C49
:102BA2006964204865616465723E200A002E2E65C4
:102BB200787065637465642E2E3C25733E2E2E61FB
:102BC200637475616C2E2E3C25733E0A0053544388
:102BD2004B00434F4D4D0053434F52004552525FFD
:102BE200494E49545F4641494C0A004552525F548E
:102BF200494D454F55540A004552525F494E564180
:102C02004C49445F504152414D0A004552525F4285
:102C120055464645525F4F564552464C4F570A005D
:102C22004552525F4E554C4C5F504F494E5445529F
:102C32000A004552525F494E56414C49445F4D4F3E
:102C420044450A004552525F4750494F5F494E4939
:102C5200545F4641494C0A004552525F43535F4517
:102C62004E41424C455F4641494C0A004552525F33
:102C7200454D5054595F4255464645520A00455209
:102C8200525F5350495F494E56414C49445F535439
:102C92004154450A004552525F554E4B4E4F574ED6
:022CA2000A0026
:00000001FF
